:020000040000FA
:0608000046EF16F01200A5
:020806001200DE
:06080800E8EF0DF0120004
:02080E00C250D6
:08081000020B01E0010E1200D1
:0608180050EF18F0120081
:02081E000800D0
:10082000E7420000F307000001000000E65100006D
:10083000EE07000005000000E35100006E0200001A
:1008400003000000A7510000B20700003C000000B8
:10085000A351000067020000040000009651000050
:100860005A0200000D000000845100002A0200001E
:10087000120000008251000073020000020000001C
:100880007CEC09F0FB0EDBCFF3FFDB06F350000935
:100890000AE0CAEC09F0FA0E35EC0AF0F3E12C1C80
:1008A000F1E1010E01D0000EABEF09F07CEC09F094
:1008B0003B0EE12402E3E168E652E16E010EDB6AE1
:1008C000020EDB6AF90EDBCFF6FFFA0EDBCFF7FF85
:1008D000FB0EDBCFF8FF0800F550DF6EDF5002E1C2
:1008E000D1EF08F0250EDF5C02E0C4EF08F0030E44
:1008F000DB6A040EDB6A050EDB6A060EDB6A070E96
:10090000DB6AE4EC08F02D0EDF5C0CE02B0EDF5C04
:1009100009E0200EDF5C06E0230EDF5C03E0300E12
:10092000DF5C1AE1DF50300A14E0130A0FE0030A1B
:100930000AE00B0A05E0060AE4E1030EDB80E1D7DA
:10094000030EDB82DED7030EDB84DBD7030EDB86F0
:10095000D8D7030EDB88D5D72A0EDF5C1BE1E0EC8D
:1009600008F02EEC09F010E0030EDB801D681E6815
:10097000130EDBCF22F0140EDBCF23F0BFEC25F0FB
:10098000040E1BC0DBFF03D0130E17EC09F0E4ECE0
:1009900008F00BD0090EDB6A85EC09F003E0F9ECF6
:1009A00009F0FAD7090E17EC09F0030EDBB0DB985B
:1009B0002E0EDF5C1BE1E4EC08F02A0EDF5C0BE19D
:1009C000E0EC08F02EEC09F003E1130E69EC09F0FD
:1009D000E4EC08F00BD0090EDB6A85EC09F003E0CB
:1009E000F9EC09F0FAD7090E69EC09F0680EDF5C42
:1009F00007E1E4EC08F0680EDF5C1DE1030E18D09F
:100A0000740EDF5C17E07A0EDF5C14E0480EDF5CEA
:100A100006E0540EDF5C03E05A0EDF5C02E1020EDA
:100A200007D06C0EDF5C03E06A0EDF5C04E1010EB0
:100A3000BCEC09F0C9DBDF506E0A01E181D31E0A6C
:100A400001E192D1200A01E18FD13F0A01E149D1B0
:100A50001A0A01E146D10D0A01E143D1200A01E160
:100A600040D13A0A01E13DD1200A01E13AD1260AFA
:100A700001E135D10D0A01E132D11A0A01E1D9D0E3
:100A8000200A4AE0300A1FE0460A0EE0250A01E08B
:100A900085D3D950F90FE96EFF0EDA20EA6E010E08
:100AA000EE5E000EEE5AEE5ACAEC09F0250EE66E26
:100AB00095DB03E12C1C01E16BD3C6EC09F001E2EC
:100AC0006DD3DB2A6BD3080EDB6A040EDB50010802
:100AD00006E2040EDB048EEC09F0DB508BDB080E23
:100AE000DB5009E0030EDB50010B05E172DB01E096
:100AF0004FD3080EDB6A64DBEFCFDFFF3EEC0AF07A
:100B000003E12C1C01E144D3C6EC09F001E3DB2A2C
:100B100060DB01E143D33CD3070EDB5002080FE159
:100B20000AEC0AF0030ED1EC09F00E0EEECFDBFF5B
:100B30000F0EEECFDBFF100EEECFDBFF20D0F70E57
:100B4000DBCF2EF0F80EDBCF2FF0020E2E5E000E64
:100B50002F5AF70E2EC0DBFFF80E2FC0DBFF2EC082
:100B6000E9FF2FC0EAFFC1EC09F02D6A0E0E2BC081
:100B7000DBFF0F0E2CC0DBFF100E2DC0DBFF0E0EB7
:100B8000DBCFE6FF0F0EDBCFE6FF100EDBCFE6FF7D
:100B90007CEC25F0E552E552E552130E1CC0DBFF5C
:100BA000140E1DC0DBFF060EDB5005E0130E05EC36
:100BB0000AF001E26ADB29EC0AF002E2130E37DBED
:100BC000ECEC09F006E0040E05EC0AF002E2050E7A
:100BD0002EDB030EDBB005D0FCDA01E0D9D2080E23
:100BE000DB6A090EDB6A0E0EDBCFF6FF0F0EDBCFE2
:100BF000F7FF100EDBCFF8FF0800F550DF6EDF5077
:100C000014E02FEC0AF011E23EEC0AF003E12C1C98
:100C100001E1BED2BBDB01E3DB2A090EDB2AD9509E
:100C20000E0FE96E000ECBDBE7D7D3DA01E1B6D2C7
:100C3000AFD2C6DA110EEECFDBFF120EEDCFDBFF27
:100C4000110EDBCFE6FF120EDBCFE6FF6EEC25F0D8
:100C5000E552E552130EF3CFDBFF140EF4CFDBFFAA
:100C6000060EDB5004E0130ED0DB01E20EDB29ECB4
:100C70000AF002E2130EDBDAAFDB05E0040EC5DB9F
:100C800002E2050ED4DA030EDBB005D0A2DA01E0F1
:100C90007FD2080EDB6A090EDB6A110EDBCFE9FF9B
:100CA000120EDBCFEAFFEFCFDFFFDF5014E0D7DB20
:100CB00012E2E4DB03E12C1C01E16AD267DB01E311
:100CC000DB2A090EDB2A110EDB2ADBCFE9FF120E2D
:100CD000E8E3DB2AE6D77DDA01E160D259D2030EE0
:100CE000DB8E070EDB0410E195DB040E5ADB0A0EE7
:100CF000EECFDBFF0B0EEECFDBFF0C0EEECFDBFFFC
:100D00000D0EEECFDBFF6CD0070EDB5003082CE19D
:100D1000030EDBAE0DD0B2DA020E76DAEFCF2BF097
:100D20002C6A2D6A2E6A2BAE39D02C682D6835D0EE
:100D3000F70EDBCF2CF0F80EDBCF2DF0020E2C5E81
:100D4000000E2D5AF70E2CC0DBFFF80E2DC0DBFF76
:100D50002CC0E9FF2DC0EAFFEFCF2BF00A0E2BC00D
:100D6000DBFF0B0EDB6A38D0070EDB50020809E10F
:100D7000030EDBAE04D059DB2DAE10D00ED055DB08
:100D80000DD0030EDBAE12D079DA020E3DDAF9DABD
:100D90002D6A2E6A2CAE02D02D682E68E2DA0C0E77
:100DA0002DC0DBFF0D0E2EC0DBFF1AD0F70EDBCF00
:100DB0002DF0F80EDBCF2EF0020E2D5E000E2E5A17
:100DC000F70E2DC0DBFFF80E2EC0DBFF2DC0E9FFB4
:100DD0002EC0EAFFD6DAC5DA0C0EDB6A0D0EDB6A2E
:100DE000060EDB5005E1010EF36E050EF3CFDBFFBF
:100DF000150EDB6A160EDB6AD950370F2B6E000E0C
:100E0000DA202C6E390E2BC0DBFF3A0E2CC0DBFF34
:100E1000380EDB6A080EDB6A0A0EAEDADF50780A9B
:100E200012E0200A10E0280A0CE0200A0AE03F0A3B
:100E300006E00D0A02E0200A08E1020E05D0080EC5
:100E400003D0080EDF26100E97DA030EDBBE02D0A9
:100E5000DB92DB94DB50800B26E08ADA030EEB504A
:100E6000000AE8AE02D0D89008D0000EEE5C000E6A
:100E7000EE58000EEE58000EEE5815E211DA20681A
:100E8000216822682368BFEC26F00A0E17C0DBFF3A
:100E90000B0E18C0DBFF0C0E19C0DBFF0D0E1AC0C5
:100EA000DBFF2D0E08D0030EDBA202D02B0E03D0E9
:100EB000DBA408D0200EF36E170EF3CFDBFF150E68
:100EC000DB2A02D0170EDB6A050EDB5003E1B5D931
:100ED00001E189D03E0E2B6E510E2C6E000E2D6E50
:100EE000070EDBCF2EF02F6A306A316A2EC020F059
:100EF0002FC021F030C022F031C023F0D1D9BFEC97
:100F000027F02B501724F36E2C501820F46E2D5020
:100F10001920F86EF4CFF7FFF3CFF6FF0800090EA3
:100F2000F5CFDBFF580EDF5C0FE1610EF36E090EAB
:100F300079D90AE3200E2B6E090EDBCFE7FF2B5089
:100F4000E75E090EE7CFDBFF070EDBCF2BF02C6A45
:100F50002D6A2E6A0DDA2BC020F02CC021F02DC096
:100F600022F02EC023F0EECF1BF0EECF1CF0EECF20
:100F70001DF0EFCF1EF0BFEC27F01EC0EDFF1DC02F
:100F8000EDFF1CC0EDFF1BC0EFFF390EDBCFE9FF0B
:100F9000DB063A0EDBCFEAFF01E2DB06090EDBCF10
:100FA000EFFF150EDB2A49D995E1030EDBA61DD014
:100FB0006F0EDF5C06E1BFD918E3150EDB2859DAA6
:100FC00014D0780EDF5C09E0580EDF5C06E0620E9C
:100FD000DF5C03E0420EDF5C08E1020EF36E160EEA
:100FE000F3CFDBFF02D0150EDB6A030EDB50100BD4
:100FF0000EE0040EDBCF2BF0050EDB50D8802B5417
:1010000006E2060EDB5003E1040EDB5032DA93D920
:101010000AE2050EDBCFE7FF150EDB50E75E050E9B
:10102000E7CFDBFF02D0050EDB6A040EDBCF2BF02F
:10103000160E43D9D8802B5414E2160EDBCFE6FFF0
:10104000150EDBCFE6FF040EDBCFE6FF050EDB500F
:10105000E552E75CE552D880E754E552D880E75482
:101060005DD9030EDB50010B0BE1080EDB5008E0ED
:10107000B0D801E08DD0080EDB50BCD8080EDB6A7A
:10108000170EDB5007E086D9170EEFD903E12C1CB1
:1010900001E17ED0160EDB5016E07CD9300EE66EF4
:1010A0009DD802E12C1C74E075D9DFCFE6FF7DEC02
:1010B00026F0E552E552E552F4CF2CF00001F31C86
:1010C00002E12C1C65E0050EDBCF2BF0160EDB5089
:1010D000D8802B5409E2050EDBCFE7FF160EDB505C
:1010E000E75E050EE7CFDBFF300EE66E050EC9D9D1
:1010F0004FE1390EDB2ADBCFE9FF3A0E01E3DB2AB1
:10110000DBCFEAFF090EEFCFDBFFDB500EE042D969
:10111000090EABD902E12C1C3BE0390EDB2ADBCFF8
:10112000E9FF3A0EEDE3DB2AEBD753D831E1160E97
:10113000DBCFE6FF080EC1D8E552E7245BD82ED0FE
:10114000070EDB50030A1CE0010A14E0030A07E063
:1011500079D9DBCFEEFF020EDBCFEDFF1FD0F3D846
:10116000306A2EAE02D02F6830682AD8BAD830C084
:10117000EEFF14D0E8D82EBE2F6822D8B2D80ED0F9
:1011800061D9DBCFEFFF0AD079D905E12C1C03E14F
:10119000F368F46810D0FAD801E3DB2A77D96BEF53
:1011A00004F0010EDBCF2BF0020EDBCF2CF02BC0B6
:1011B000F3FF2CC0F4FFD9CFE1FFDACFE2FFCBD0B1
:1011C00029D9020ED1EF09F061D90800F550DF6E80
:1011D0001200200EE66E080E41EF0AF07DEC26F0BC
:1011E000E552E552E552F3CF2BF0F4CF2CF000019D
:1011F000F31C12002B6E2C6AD950010F4DD92B50C5
:10120000EE262C50ED2212002F5E000E305AF70E03
:101210002FC0DBFFF80E30C0DBFF2FC0E9FF30C06E
:10122000EAFF1200DBCFF4FFF350F45C1200DB5056
:10123000E76E040EE7CFDBFF12000A0EDBCF2BF0C8
:101240000B0EDBCF2CF00C0EDBCF2DF00D0EDBCF19
:101250002EF02B502C102D102E101200130EEECF4E
:10126000DBFF140EEDCFDBFF130EDBCF2BF0140EE4
:10127000DBCF2CF00001800E2C141200F70EDBCF18
:101280002FF0F80EDBCF30F01200050EDB50E66ECB
:10129000D950130F01D9E552E750EE6EED6A1200F6
:1012A0000A0EDBCF1BF00B0EDBCF1CF00C0EDBCFDE
:1012B0001DF00D0EDBCF1EF01200DBCFE6FF150E8A
:1012C000DBCFE6FF050EDB50E552E724E552E724CD
:1012D0001200DB50CED8010EF36E060EF3CFDBFF0B
:1012E0001200EE50EFCFEAFFE96E2DC0EEFF2EC0E8
:1012F000EEFF2FC0EEFF1200D9CFE6FFDACFE6FFF8
:10130000E1CFD9FFE2CFDAFF1200DFCFE6FFE66AD6
:1013100059EC28F0E552E552F3501200E76E080E42
:10132000E7CFDBFF1200EECF2BF0EECF2CF0EFCFAC
:101330002DF02E6A1200050EDBCF2BF0150EDB50C0
:10134000D8802B541200010EDBCF2DF0020EDBCF24
:101350002EF02F6A1200E552E5CFDAFFE7CFD9FF72
:1013600012000A0E2BC0DBFF0B0E2CC0DBFF12009D
:10137000D9500A0F4CEF0AF0F36E070EF3CFDBFFE4
:101380001200EECF2BF0EFCF2CF01200010EDB2A73
:10139000020E1200FC0EDBCFE6FFFD0EDBCFE6FFF8
:1013A00012002B5E000E2C5AF70E2BC0DBFFF80E3E
:1013B0002CC0DBFF2BC0E9FF2CC0EAFF1200DA20B3
:1013C000EA6EEF2AEECFF6FF000EEF22EECFF7FF28
:1013D000EF22EECFF8FF1200040EDBCFE6FF130E74
:1013E000DB50E552E75C9ADFDB5004DF060EDB5092
:1013F0001200090EDB500A0DF350DF24D00FE76E08
:10140000090EE7CFDBFFE4EF08F0DB50F36E050ECB
:1014100012EF09F0F70EDBCF2BF0F80EDBCF2CF03C
:101420001200DFCFE6FFEEEF08F028DF030EECDE60
:1014300093EF09F040EC04F0E552E552E552E55235
:1014400000091200BDDEEE50EFCFEAFFE96E010E9B
:101450001200130EDB50F36E040E12EF09F0040EAF
:10146000DB50F36E090E12EF09F0DBCFE6FFEEEF73
:1014700008F0E76E050EE7CFDBFF12008BDF11EF00
:101480000AF0DBCFE6FF86DF1AEF0AF0D950F90F3A
:10149000E96EFF0EDFEF09F0E96E000EDA20EA6E6A
:0214A000120038
:0E14A200E50EE66EE3EC27F0E552F60ECF6E97
:1014B0003B0ECE6E9F90120068DB0C0EE126F2AC64
:1014C00004D0F29C24DBF28C01D021DBDECF2BF0A8
:1014D000DDCF2CF03B0E2B5EF60E2C5A0A0E2BC0E5
:1014E000DBFF0B0E2CC0DBFF020EDBCF2BF0030E5D
:1014F000DBCF2CF0040EDBCF2DF0050EDBCF2EF072
:1015000049DBBFEC26F017C02BF018C02CF019C037
:101510002DF01AC02EF0020E1D6E1E6A0A0EDBCFD1
:1015200022F00B0EDBCF23F0A1EC25F01BC02FF037
:101530001CC030F0050E226E236A1BC01DF01CC0BB
:101540001EF043EC28F0316A326A1D502B261E50E3
:101550002C2231502D2232502E22060E2BC0DBFFC2
:10156000070E2CC0DBFF080E2DC0DBFF090E2EC0BE
:10157000DBFF060EDBCF2BF0070EDBCF2CF0080EC7
:10158000DBCF2DF0090EDBCF2EF019DBD9CFE1FF39
:10159000F8D29FDADBDAD9CFE1FFF3D20ADBEECF64
:1015A0002BF0EECF2CF0EECF2DF0EFCF2EF0A2D21D
:1015B00000DB0701B651EE5C2B6EB751EE582C6E76
:1015C000B851EE582D6EB951EE582E6E93D2D9CF38
:1015D000E6FFD7D2DADA0701E251E3111CE1FB0E94
:1015E000DBCF06F2FC0EDBCF07F2FD0EDBCF08F2FD
:1015F000FE0EDBCF09F206C202F207C203F208C2F6
:1016000004F209C205F2F29CF90EDBCFE2F7FA0E02
:10161000DBCFE3F77BD0E451E5111CE1FB0EDBCF20
:101620000EF2FC0EDBCF0FF2FD0EDBCF10F2FE0E42
:10163000DBCF11F20EC20AF20FC20BF210C20CF293
:1016400011C20DF2F29CF90EDBCFE4F7FA0EDBCFFC
:10165000E5F75CD0E651E7111CE1FB0EDBCF16F29B
:10166000FC0EDBCF17F2FD0EDBCF18F2FE0EDBCF48
:1016700019F216C212F217C213F218C214F219C2EA
:1016800015F2F29CF90EDBCFE6F7FA0EDBCFE7F7A7
:101690003DD0E851E9111CE1FB0EDBCF1EF2FC0E40
:1016A000DBCF1FF2FD0EDBCF20F2FE0EDBCF21F2EF
:1016B0001EC21AF21FC21BF220C21CF221C21DF26E
:1016C000F29CF90EDBCFE8F7FA0EDBCFE9F71ED07C
:1016D000EA51EB111CE1FB0EDBCF26F2FC0EDBCF57
:1016E00027F2FD0EDBCF28F2FE0EDBCF29F226C259
:1016F00022F227C223F228C224F229C225F2F29C48
:10170000F90EDBCFEAF7FA0EDBCFEBF7F28C39D22A
:101710003CDAE2C72BF0E3C72CF02BDA07E12DDA35
:1017200005E1F29C0701E26BE36B33D0E4C72BF0D9
:10173000E5C72CF01EDA07E120DA05E1F29C07018B
:10174000E46BE56B26D0E6C72BF0E7C72CF011DA87
:1017500007E113DA05E1F29C0701E66BE76B19D0AC
:10176000E8C72BF0E9C72CF004DA07E106DA05E157
:10177000F29C0701E86BE96B0CD0EAC72BF0EBC7D2
:101780002CF0F7D907E1F9D905E1F29C0701EA6BE2
:10179000EB6BF28CF6D1F29EF60ECF6E3B0ECE6E58
:1017A000F28E0701B22B000EB323B423B523070139
:1017B000BE510EE00701BA07000EBB5BBC5BBD5B10
:1017C0000701BA51BB11BC11BD1102E10701BE6B8B
:1017D0000701DC5106E00701C32B000EC423C5231B
:1017E000C6230701DD5106E00701C72B000EC82301
:1017F000C923CA230701DE5106E00701CB2B000EE7
:10180000CC23CD23CE230701DF5106E00701CF2BE8
:10181000000ED023D123D2230701E05106E00701B7
:10182000D32B000ED423D523D6230701E15106E0A4
:101830000701D72B000ED823D923DA230701E25161
:10184000E3111BE002010207000E035B045B055B72
:10185000020102510311041105110FE105D0E3C784
:10186000FAFF0701E251F96EFADF06C202F207C27F
:1018700003F208C204F209C205F20701E451E511BE
:101880001BE002010A07000E0B5B0C5B0D5B020103
:101890000A510B110C110D110FE105D0E5C7FAFF2C
:1018A0000701E451F96EFADF0EC20AF20FC20BF221
:1018B00010C20CF211C20DF20701E651E7111BE054
:1018C00002011207000E135B145B155B020112513B
:1018D0001311141115110FE105D0E7C7FAFF070125
:1018E000E651F96EFADF16C212F217C213F218C2ED
:1018F00014F219C215F20701E851E9111BE00201C7
:101900001A07000E1B5B1C5B1D5B02011A511B11A9
:101910001C111D110FE105D0E9C7FAFF0701E851BD
:10192000F96EFADF1EC21AF21FC21BF220C21CF2AD
:1019300021C21DF20701EA51EB111BE0020122074F
:10194000000E235B245B255B02012251231124112D
:1019500025110FE105D0EBC7FAFF0701EA51F96E37
:10196000FADF26C222F227C223F228C224F229C2B9
:1019700025F20701ED2B0701ED510A0809E20101EB
:101980000101E351010B04E00AEC1DF00701ED6BCE
:101990007DEC14F0080E0101D5150701EC5D09E09E
:1019A0000701EC5101E000D0080E0101D515070137
:1019B000EC6F02013E5123E0800E0101D5151FE1BD
:1019C00062EC1CF00201405D1AE00701B651B7114C
:1019D000B811B91114E0FF0E0201405D05E162EC9F
:1019E0001CF00201406F0BD062EC1CF00201406F52
:1019F00016EE00F026EE00F0010EFC6E1000120054
:101A0000C4D8FB0EDBCF2BF0FC0EDBCF2CF0FD0E91
:101A1000DBCF2DF0FE0EDBCF2EF02B502C102D1037
:101A20002E1011E0FB0EDBCFBAF7FC0EDBCFBBF7BD
:101A3000FD0EDBCFBCF7FE0EDBCFBDF70701010EBD
:101A4000BE6FBE51FEE19DD0A0D8FE0EDB5004E07B
:101A5000FE0EDB50060804E2FE0EDB50000E01D045
:101A6000010E8FD051D803E07CD8010EEF6E89D0E3
:101A70004BD802E076D8EF6A84D046D80EE059D829
:101A8000FA0EDBCFEEFFFB0EDBCFEEFFFC0EDBCF63
:101A9000EEFFFD0EDBCFEEFFF28C73D076D8040E96
:101AA000E12680D805E11B6A1C6A1D6A1E6A0ED0F9
:101AB00040D8EECFDFFF010EEECFDBFF020EEECF00
:101AC000DBFF030EEECFDBFFF28C40D8D9CFE1FF76
:101AD00058D05BD8040EE126F29CB2C7DFFF010E9E
:101AE000B3C7DBFF020EB4C7DBFF030EB5C7DBFFD6
:101AF000F28C12004FD8BFEC27F01BC0F3FF1CC0C4
:101B0000F4FFD9CFE1FF3DD040D8D2EF0DF0CE5059
:101B1000DF6E010ECFCFDBFF020EB2C7DBFF030E7D
:101B2000B3C7DBFF040EB4C7DBFF050EB5C7DBFF91
:101B30001200F29CFE0EDB50040DF3CFE9FFF4CF50
:101B4000EAFFBF0EE926070EEA221200DECF1BF0E5
:101B5000DECF1CF0DECF1DF0DDCF1EF0DD52DD52FA
:101B60001200FE0EDB50EA6ADB0FE96E070EEA2276
:101B70001200FD0EDB502B181200FE0EDB502C184D
:101B80001200E552E7CFD9FF1200D9CFE6FFE1CF2F
:101B9000D9FF1200E80E206E030E216E226A236A1E
:101BA000DFEF0DF0FE0EDBCFE6FF4EDFE552000962
:101BB00012008FDFD9CFE9FFDACFEAFF12002BC086
:101BC0001BF02CC01CF02DC01DF02EC01EF012000A
:101BD000DACFE4FFE2CFDAFFE9CFE4FFEACFE4FFB8
:101BE000E652F2A202D09CD802D09EB6C8D8E552E6
:101BF000E5CFEAFFE5CFE9FFE5CFDAFF1100E66ABE
:101C0000010EE66E050EE66EF7EC26F0E552E552A3
:101C1000E5521200070EB46E000E886E876E866E57
:101C2000856E846E836E826E816E806E916E906E14
:101C30008F6E8E6E8D6E8C6E8B6E8A6E896E9268D4
:101C40009368BF0E946E956A700E966E9F0E976E97
:101C5000E40E986E0F0E996E9A68C16E070EC06EF4
:101C6000F19EB0989C8EA26A9F6AA06A9D6AA36A40
:101C7000A56AC5DF9F86D08E9E969D869382F06A68
:101C8000F288F09EF098F192F09AF16AF28CF28E5E
:101C90001200D9CFE6FFE1CFD9FFE652BBDF010149
:101CA000E397E3990201A70E566F010E576FDF6AA3
:101CB000100EDF5C0AE2DF50EA6A5625E96E5751E2
:101CC000EA227F0EEF6EDF2AF3D70101C06B010E0F
:101CD000C16FC90EC26F0101E385010ED56E800E82
:101CE000D76EF90ED66ED59EA30EE66E010EE66E89
:101CF00094D8E552E5520101E393A30EE66E010E7E
:101D0000E66E8BD8E552E5520101E393E552E552C8
:101D1000E7CFD9FF120082828088949292981200B5
:101D2000F2920201200E526F9F860101E3A906D0B4
:101D30000201E00E4F6F000E506F05D00201C00E81
:101D40004F6F000E506F0101E3A1E379E3A706D0C6
:101D50000201800E4D6F000E4E6F05D00201A00EE5
:101D60004D6F000E4E6FC9CF53F24DC2E9FF4EC208
:101D7000EAFF4D2B000E4E23EF50C96E12009E96C7
:101D8000C9CF53F202015251000823E24FC2E9FFCA
:101D900050C2EAFF4F2B000E502353C2EFFF4DC23B
:101DA000E9FF4EC2EAFF4D2B4E23EFCF53F253C251
:101DB000C9FF520752510CE10101020EC16F01012E
:101DC000E393E381770ED76E470ED66EF294D58EED
:101DD00001D0C96A1200D9CFE6FFE1CFD9FF0101D6
:101DE000E3A117D0FD0EDBCFE6FFFE0EDBCFE6FF53
:101DF00037EC1BF0E552E5529D960101E3919D867B
:101E00000F0E0001165D05E0B9C1E6FF81EC1AF086
:101E1000E552E552E7CFD9FF1200D9CFE6FFE1CF77
:101E2000D9FF0101E3B332D0FD0EDBCFE9FFFE0E97
:101E3000DBCFEAFF1E0EE926000EEA22EF50020871
:101E400009E1FD0EDBCFE6FFFE0EDBCFE6FF69D832
:101E5000E552E552FD0EDBCFE9FFFE0EDBCFEAFFD8
:101E6000150EE926000EEA22EF9EFD0EDBCFE6FFFF
:101E7000FE0EDBCFE6FFA5EC1AF0E552E5529D968B
:101E80000101E377E3839D860101C02BE552E7CF93
:101E9000D9FF12009D960101E3919D861200D9CFD2
:101EA000E6FFE1CFD9FF0001166BD950FD0FE96EB7
:101EB000FF0EDA20EA6E010EEE1801E1ED5002E1AC
:101EC000168101D0BA6AD950FB0FE96EFF0EDA20F5
:101ED000EA6E010EEE1801E1ED5002E1168301D029
:101EE000B76AD950F90FE96EFF0EDA20EA6E010EDB
:101EF000EE1801E1ED5002E1168501D0736AD95068
:101F0000F70FE96EFF0EDA20EA6E010EEE1801E11E
:101F1000ED5002E1168701D0706AE552E7CFD9FF94
:101F20001200D9CFE6FFE1CFD9FFFD0EDBCFE9FFED
:101F3000FE0EDBCFEAFF1C0EE926000EEA22EF6A56
:101F4000FD0EDBCFE9FFFE0EDBCFEAFF170EE92621
:101F5000000EEA22EF6AC6AE0ED0C69EFD0EDBCFA3
:101F6000E9FFFE0EDBCFEAFF170EE926000EEA229C
:101F7000010EEF6E22D0F150800B10E0F250080BF2
:101F80000DE0FD0EDBCFE9FFFE0EDBCFEAFF170E03
:101F9000E926000EEA22020EEF6E0FD0F0A60DD059
:101FA000909EFD0EDBCFE9FFFE0EDBCFEAFF170EA2
:101FB000E926000EEA22030EEF6E250EC614250850
:101FC00019E0FD0EDBCFE9FFFE0EDBCFEAFF1C0EB2
:101FD000E926000EEA22010EEF6EFD0EDBCFE9FFCF
:101FE000FE0EDBCFEAFF170EE926000EEA22C6CF6F
:101FF000EFFF80D1C55019E0FD0EDBCFE9FFFE0EEB
:10200000DBCFEAFF1C0EE926000EEA22020EEF6E7D
:10201000FD0EDBCFE9FFFE0EDBCFEAFF170EE92650
:10202000000EEA22C5CFEFFF65D1D0BE19D0FD0E5C
:10203000DBCFE9FFFE0EDBCFEAFF1C0EE926000E28
:10204000EA22030EEF6EFD0EDBCFE9FFFE0EDBCFC3
:10205000EAFF170EE926000EEA22D0CFEFFF4AD1A1
:102060009DB619D0FD0EDBCFE9FFFE0EDBCFEAFFF8
:102070001C0EE926000EEA22040EEF6EFD0EDBCFE9
:10208000E9FFFE0EDBCFEAFF170EE926000EEA227B
:102090009DCFEFFF2FD19C5019E0FD0EDBCFE9FF64
:1020A000FE0EDBCFEAFF1C0EE926000EEA22050E2B
:1020B000EF6EFD0EDBCFE9FFFE0EDBCFEAFF170E62
:1020C000E926000EEA229CCFEFFF14D1080E9F5C98
:1020D00019E0FD0EDBCFE9FFFE0EDBCFEAFF1C0EA1
:1020E000E926000EEA22060EEF6EFD0EDBCFE9FFB9
:1020F000FE0EDBCFEAFF170EE926000EEA229FCF85
:10210000EFFFF8D0A25019E0FD0EDBCFE9FFFE0E85
:10211000DBCFEAFF1C0EE926000EEA22070EEF6E67
:10212000FD0EDBCFE9FFFE0EDBCFEAFF170EE9263F
:10213000000EEA22A2CFEFFFDDD0A55019E0FD0E80
:10214000DBCFE9FFFE0EDBCFEAFF1C0EE926000E17
:10215000EA22080EEF6EFD0EDBCFE9FFFE0EDBCFAD
:10216000EAFF170EE926000EEA22A5CFEFFFC2D044
:10217000100EF214100819E0FD0EDBCFE9FFFE0E81
:10218000DBCFEAFF1C0EE926000EEA22090EEF6EF5
:10219000FD0EDBCFE9FFFE0EDBCFEAFF170EE926CF
:1021A000000EEA22F2CFEFFFA5D0470EF11419E09E
:1021B000FD0EDBCFE9FFFE0EDBCFEAFF1C0EE926AA
:1021C000000EEA220A0EEF6EFD0EDBCFE9FFFE0ED7
:1021D000DBCFEAFF170EE926000EEA22F1CFEFFF70
:1021E00089D0C00EF01419E0FD0EDBCFE9FFFE0E22
:1021F000DBCFEAFF1C0EE926000EEA220B0EEF6E83
:10220000FD0EDBCFE9FFFE0EDBCFEAFF170EE9265E
:10221000000EEA22F0CFEFFF6DD092A819D0FD0E8C
:10222000DBCFE9FFFE0EDBCFEAFF1C0EE926000E36
:10223000EA220C0EEF6EFD0EDBCFE9FFFE0EDBCFC8
:10224000EAFF170EE926000EEA2292CFEFFF52D0E6
:1022500093B019D0FD0EDBCFE9FFFE0EDBCFEAFF16
:102260001C0EE926000EEA220D0EEF6EFD0EDBCFEE
:10227000E9FFFE0EDBCFEAFF170EE926000EEA2289
:1022800093CFEFFF37D03E0E94141C0819E0FD0EDB
:10229000DBCFE9FFFE0EDBCFEAFF1C0EE926000EC6
:1022A000EA220E0EEF6EFD0EDBCFE9FFFE0EDBCF56
:1022B000EAFF170EE926000EEA2294CFEFFF1AD0AC
:1022C00097BE18D0FD0EDBCFE9FFFE0EDBCFEAFF95
:1022D0001C0EE926000EEA220F0EEF6EFD0EDBCF7C
:1022E000E9FFFE0EDBCFEAFF170EE926000EEA2219
:0C22F00097CFEFFFE552E7CFD9FF1200B7
:0422FC0031DAFD0EC8
:10230000DB0403E0FD0EDB504CE1FE0EDB50100A57
:1023100044E01F0A40E0010A3CE0030A38E0010AF9
:1023200031E0070A2DE0010A29E0030A24E0010A4E
:1023300020E00F0A1CE0010A18E0030A11E0010A7C
:102340000CE0070A08E0010A04E0030A2AE128DA9F
:1023500008D023DA06D00DDA04D0F9D9F70E01D06F
:102360002ADA9214F310926E1CD01ADA0CD015DA15
:102370000AD0FFD908D0EBD9F70E05D02EDA03D05A
:102380001ADA01D02EDA9714F310976E0AD025DAF4
:1023900005D011DA03D025DA01D026DA9914F3102A
:1023A000996EE3D1DDD954EC25F0FE0EDB50100A16
:1023B0003CE01E0A38E0030A34E0010A30E0070A74
:1023C0002CE0010A28E0030A24E0010A20E00F0AB9
:1023D0001CE0010A18E0030A14E0010A10E0070AF1
:1023E0000CE0010A08E0030A04E0010A22E1E668C1
:1023F0001ED0FE0E1BD0FD0E19D0FC0E17D0FB0E0A
:1024000015D0FA0E13D0F90E11D0F80E0FD0F70E2A
:102410000DD0F60E0BD0F50E09D0F40E07D0F30E4A
:1024200005D0F20E03D0F10E01D0F00EE66E1FD9EA
:10243000E552FD0EDBCFE6FF010E8DD9FC0EDBCFA2
:10244000E6FF020E88D9FB0EDBCFE6FF030E83D931
:10245000FA0EDBCFE6FF040E7ED9F90EDBCFE6FFE6
:10246000050E79D9F80EDBCFE6FF060E74D9F70E0C
:10247000DBCFE6FF070E6FD9F60EDBCFE6FF080EC7
:102480006AD9F50EDBCFE6FF090E65D9F40EDBCF76
:10249000E6FF0A0E60D9F30EDBCFE6FF0B0E5BD929
:1024A000F20EDBCFE6FF0C0E56D9F10EDBCFE6FFC6
:1024B0000D0E51D9F00EDBCFE6FF0E0E4CD9EF0E0C
:1024C000DBCFE6FF0F0E47D9EE0EDBCFE6FF100E97
:1024D00042D94BD145D9FE0EDB50100A44E01F0A09
:1024E00040E0010A3CE0030A38E0010A31E0070A53
:1024F0002DE0010A29E0030A24E0010A20E00F0A86
:102500001CE0010A18E0030A11E0010A0CE0070AC6
:1025100008E0010A04E0030A2BE142D908D03DD9C2
:1025200006D027D904D013D9F70E01D044D9891485
:10253000F310896E1FD034D90CD02FD90AD019D9F5
:1025400008D005D9F70E05D048D903D034D901D029
:1025500048D98E14F3108E6E0DD03FD905D02BD9EB
:1025600003D03FD901D040D99014F310906E02D01F
:10257000FE0EDB50FAD0F4D8FE0EDB50100A57E006
:102580001F0A51E0010A4BE0030A45E0010A3FE05F
:10259000070A39E0010A33E0030A2DE0010A27E0C7
:1025A0000F0A21E0010A1CE0030A16E0010A10E00C
:1025B000070A0AE0010A04E0030A3EE1805011D054
:1025C0008050020B3AE036D08050040B36E032D017
:1025D0008050080B32E02ED08050200B2EE02AD005
:1025E0008550010B2AD08550020B27E023D085505F
:1025F000040B23E01FD08550080B1FE01BD0855033
:10260000100B1BE017D08550200B17E013D085501E
:10261000400B13E00FD08750100B0FE00BD087500A
:10262000200B0BE007D08750400B07E003D087500A
:10263000800B03E0010E01D0000E97D091D8E66A1E
:10264000FE0EDBCFE6FF5ADEE552E552FD0EDBCF94
:10265000E6FFFE0EDBCFE6FF3DDFE552E55285D01B
:102660007FD8E66AADD07CD8010EE66EA9D078D8C6
:10267000FE0EDBCF6DF279D073D8020EE126F29C0C
:10268000FE0EDB507F0B79D807EC04F00009FCE16B
:1026900024EC28F0BCEC28F0C4502D6E2E6E2D6A70
:1026A000C35000012D102B6E2EC02CF0DE6E2EC0FC
:1026B000DDFFF28CDECF2BF0DDCF2CF02BC0F3FF53
:1026C0002CC0F4FFD9CFE1FF50D04AD8030EE12649
:1026D000010EF36EFE0EDBCFF4FFF350F45C04E367
:1026E000FE0EDB50100803E2F36AF46A2DD0FE0EF2
:1026F000DB50F76A4F0FF66E510EF7220800F550C7
:10270000DF6EF29C7F0EDF1438D807EC04F000096E
:10271000FCE124EC28F0BCEC28F0C4502E6E2D6AAD
:10272000C3502D102B6E010E2BC0DBFF020E2EC0EE
:10273000DBFFF28C010EDBCF2BF0020EDBCF2CF097
:102740002BC0F3FF2CC0F4FFD9CFE1FF0ED03FD850
:10275000F346F3461200E66ED1DDE552E552120073
:10276000D9CFE6FFE1CFD9FF1200E552E7CFD9FF7D
:1027700012002DD8F346FB0E1200FE0BFD0BE66E89
:102780006DC2E6FF8EEC27F0E552E5520A0EE66ECA
:1027900089EC28F0E552BFEF28F019D8FD0E1200A1
:1027A000FD0EDB50010BF36EFE0E1200F346F346F6
:1027B000F346BF0E1200CBDFF346F346DF0E1200E6
:1027C000FE0EDBCFE6FF3ADFE552E552CED7FD0E37
:1027D000DB50010BF36EF3461200B9DFF346EF0E48
:1027E0001200B5DFD6EF13F0B2DFF346F346F3463F
:0627F000F3467F0E12000B
:0A27F6001FDA1A0EE126D9CF2BF0EE
:10280000DACF2CF03CDA0101AA0E886F550E896FE1
:102810001E0E8A6F120E8B6F8C6BFE0EDB5005E066
:10282000FE0EDB0402E0000E65D0FE0EDB5001E080
:102830008C810701F25101018C13050EF36E190E04
:10284000F3CFDBFF150EE8D906E2EDD9200EEF6ECF
:10285000190EDB2AF7D7190EDB6A100EDDD913E249
:10286000CDD90F01F8D9EF50E66E190EDB50050FE8
:10287000EA6A880FE96E010EEA22E552E750EF6E30
:10288000190EDB2AEAD701019E6B040EF36E190EB6
:10289000F3CFDBFF150EC0D906E2C5D9EF509E2756
:1028A000190EDB2AF7D79E1D010F9E6FE8CF9DF111
:1028B000190EDB6A160EB0D909E2B5D9EF50E66EF3
:1028C00089EC23F0E552190EDB2AF4D7F1C72BF07F
:1028D0002C6A2D6A2E6AF1C7E6FF2CC0E6FF2DC0D8
:1028E000E6FF2EC0E6FF00EC0DF0E552E552E552A2
:1028F000E552010ED9CFE1FFA3D1080E0701EE5D2D
:1029000003E1F29CEE6BF28C120095D9E6520701BE
:10291000EE51080A57E00C0A2EE0070A23E0010AEC
:1029200011E0030A08E0010A4CE1FE0EDB50AA08A0
:1029300049E1010E3FD0EE6BFE0EDB50550842E13F
:10294000020E38D00101A06BA0C1F0F7A0C19FF129
:10295000FE0EDBCFEFF70701EE6B160EEF5D32E1F7
:10296000030E28D0FE0EDBCFF0F7EE6B020EF05D0B
:1029700029E1040E1FD001019F519F2BEA6A5A0FD3
:10298000E96E010EEA22FE0EDBCFEFFF0701F00732
:10299000F05112E1FE0EDB500101A027A05112E11F
:1029A0005AC166F166B1678166B3678366B56785AC
:1029B0000701080EEE6F06D0FE0EDB500101A027C6
:1029C00001D0EE6BE5523CD152D90701EE6B01010B
:1029D000666B676B0A0EE66E290EE66EB6EC23F0A8
:1029E000E552E552120037EF16F025D9E66A03DF0B
:1029F000E552F29CD950FD0F27D90DE0010E0101DF
:102A0000671502E0010E01D0000EE66EFD0EDBCF71
:102A1000E9FFFE0E26D9D950FB0F16D90DE0020EA4
:102A20000101671502E0010E01D0000EE66EFB0EFB
:102A3000DBCFE9FFFC0E15D9D950F90F05D90DE010
:102A4000040E0101671502E0010E01D0000EE66ED2
:102A5000F90EDBCFE9FFFA0E04D90701EE6B010195
:102A6000676BF28CEDD0E7D8020EE126800EE66EA1
:102A7000FC0EE66E2AEC27F0E552E552A59AA598E1
:102A8000989298846E50DF6E6E50DF6EA49A0701A4
:102A9000F26B010EDB6A100EF36E010EDBCFF4FF5A
:102AA000F350F45C15E2010EDB50EA6A680FE96E40
:102AB000010EEA22200EEF6E010EDB50EA6A780F5B
:102AC000E96E010EEA22200EEF6E010EDB2AE3D73B
:102AD000D9CFE1FFB5D0AFD81D0EE126D0D8D9505F
:102AE000FC0F2B6EFF0EDA202C6E1B0E2BC0DBFFB3
:102AF0001C0E2CC0DBFF1B0EDBCFE6FF1C0EDBCF5A
:102B0000E6FFFC0EDBCF2BF0FD0EDBCF2CF02D6AA9
:102B10002BC0E6FF2CC0E6FF2DC0E6FFD950170FF3
:102B2000E66E000EDA20E66E56EC04F0F56E070E47
:102B3000E15EF5501A0EF3CFDBFF170EDBCFE9FF96
:102B4000180EDBCFEAFFEF6A1A0EDB50100805E221
:102B5000100EF36E1A0EF3CFDBFFFE0EDB5005E016
:102B6000FE0EDB0402E0000E2FD0190EDB6A100E01
:102B700053D808E243D80F016ED8200EEF6E190E1D
:102B8000DB2AF5D7190EDB6A1A0EDB5045D816E2A0
:102B9000D9CF2DF0DACF2EF0190EDB500F01D9244A
:102BA000E96E000EDA20EA6EEF50E66E27D853D8B1
:102BB000E552E750EF6E190EDB2AE6D7FE0EDBCFAB
:102BC000E6FF19DEE552010ED9CFE1FF39D033D847
:102BD000FE0EDB5005E0FE0EDB0402E0000E0DD021
:102BE000FE0EDB5004E00701020EF26F02D0070177
:102BF000F26BE66A00DEE552010E22D0FE0EDB50DB
:102C0000100DF3CF2BF0F4CF2CF0680E2B26010E15
:102C10002C22190EDB501200F36E190EDBCFF4FFDD
:102C2000F350F45C1200190EDB50EA6A880FE96E6B
:102C3000010EEA221200D9CFE6FFE1CFD9FF120040
:102C4000E552E7CFD9FF1200E96EFF0EDA20EA6EF7
:102C5000EE50ED1012002B24E96E000E2C20EA6ECF
:102C60001200DBCFEAFFE552E750EF6E1200000ED4
:102C7000E66EE66AB6EC23F0E552E5521200170E56
:0C2C8000D9CFDBFF180EDACFDBFF12000B
:042C8C00D9CFE6FFB7
:102C9000E1CFD9FF020EE12616EE00F026EE00F09D
:102CA000F86A269CA68EA69C59EC1AF005EC25F035
:102CB000CBEC1CF00701B66BB76BB86BB96B0201BC
:102CC000705101E1FCD70101E251E66EE66ACD0EDA
:102CD0002B6E420E2C6E2D6A2BC0E6FF2CC0E6FF39
:102CE0002DC0E6FFECEC25F0F56E050EE15EF5502B
:102CF00002013E5114E102013F5111E10101040EB4
:102D0000B76F640EE66EE66AE66AE66A00EC0DF0FE
:102D1000E552E552E552E55236EC26F0ADD1FF0E14
:102D200002013E5D01E0B8D0080E0101E25D22E241
:102D30000101E251E66EE66A940E2B6E420E2C6E95
:102D40002D6A2BC0E6FF2CC0E6FF2DC0E6FFECECA1
:102D500025F0F56E050EE15EF550E80EE66E030E09
:102D6000E66EE66AE66A00EC0DF0E552E552E552E1
:102D7000E552DED70101D5510CE1640EE66EE66A3C
:102D8000E66AE66A00EC0DF0E552E552E552E552DE
:102D9000F1D7780E2B6E420E2C6E2D6A2BC0E6FFFB
:102DA0002CC0E6FF2DC0E6FFECEC25F0E552E55225
:102DB000E552640EE66EE66AE66AE66A00EC0DF03D
:102DC000E552E552E552E55203EC04F07EEC1CF0CE
:102DD000000901E1FBD7C9EC0AF01BC0B6F71CC023
:102DE000B7F71DC0B8F71EC0B9F762EC1CF00009B8
:102DF0002DE0640EE66EE66AE66AE66A00EC0DF027
:102E0000E552E552E552E5520101020EB76F57EC6B
:102E10001CF062EC1CF0000901E0FBD701017F0E01
:102E2000A76F01017F0EA86F01017F0EA96F01013D
:102E30007F0EAA6F01017F0EAB6F01017F0EAC6F99
:102E400001017F0EAD6F01017F0EAE6F0101B76B07
:102E5000E66AE66AE66AE66AB0EC28F0E552E55210
:102E6000E552E55201017F0EA76F01017F0EA86FA9
:102E700001017F0EA96F01017F0EAA6F01017F0E74
:102E8000AB6F01017F0EAC6F01017F0EAD6F0101D1
:102E90007F0EAE6FAAD7F0D0640EE66EE66AE66AE1
:102EA000E66A00EC0DF0E552E552E552E55203EC1E
:102EB00004F00101C55101E1FCD7C9EC0AF01BC0C7
:102EC000B6F71CC0B7F71DC0B8F71EC0B9F70101AF
:102ED000D55121E00101E25107081DE2240E2B6EBD
:102EE000420E2C6E2D6A2BC0E6FF2CC0E6FF2DC0D3
:102EF000E6FFECEC25F0E552E552E552E80EE66E11
:102F0000030EE66EE66AE66A00EC0DF0E552E55265
:102F1000E552E552E3D702013F51E66EE66A02014F
:102F20003E51E66EE66AD50E2B6E410E2C6E2D6A72
:102F30002BC0E6FF2CC0E6FF2DC0E6FFECEC25F031
:102F4000F56E070EE15EF55002013E5142E062EC83
:102F50001CF000093EE0640EE66EE66AE66AE66A88
:102F600000EC0DF0E552E552E552E5520101020E8A
:102F7000B76F3EC22BF02C6A2D6A2E6A2BC0E6FF7B
:102F80002CC0E6FF2DC0E6FF2EC0E6FFB6EC28F011
:102F9000E552E552E552E55262EC1CF0000901E011
:102FA000FBD701017F0EA76F01017F0EA86F010102
:102FB0007F0EA96F01017F0EAA6F01017F0EAB6F1B
:102FC00001017F0EAC6F01017F0EAD6F01017F0E1D
:102FD000AE6F02013F5150E00701B66BB76BB86BA3
:102FE000B96B020140693FC23EF2C9EC0AF01BC056
:102FF000B6F71CC0B7F71DC0B8F71EC0B9F7640E0E
:10300000E66EE66AE66AE66A00EC0DF0E552E55225
:10301000E552E5520101B76B3FC22BF02C6A2D6AD5
:103020002E6A2BC0E6FF2CC0E6FF2DC0E6FF2EC0A7
:10303000E6FFB0EC28F0E552E552E552E55262ECCD
:103040001CF0000901E0FBD701017F0EA76F010111
:103050007F0EA86F01017F0EA96F01017F0EAA6F7D
:1030600001017F0EAB6F01017F0EAC6F01017F0E7E
:10307000AD6F01017F0EAE6FE80EE66E030EE66ED9
:10308000E66AE66A00EC0DF0E552E552E552E552DB
:10309000F3D70AD6D9CFE1FFE552E7CFD9FF120027
:1030A000D8CFE4FFE0CFE4FFE46EDACFE4FFE2CF75
:1030B000DAFFE9CFE4FFEACFE4FFF3CFE4FFF4CF98
:1030C000E4FF00EE17F0140EE80403E3EECFE4FF94
:1030D000FBD700EE2BF00B0EE80403E3EECFE4FF8A
:1030E000FBD7E652E1D9030EE126A450200B05E000
:1030F000A350200B02E0C4EC23F09EA003D09E90CE
:10310000CBEC0BF09E50200B05E09D50200B02E015
:103110009EEC23F09E50100B05E09D50100B02E03A
:10312000F2EC23F0A450100B05E0A350100B02E0CA
:1031300004EC24F0F050020B15E0F050100B12E0FC
:1031400002015A515B110DE0F8C1E6FF010EE66E77
:1031500005D05BC2FAFF02015A51F96EFADFE5525F
:10316000E552F092F050040B15E0F050200B12E005
:1031700002015C515D110DE0F9C1E6FF020EE66E41
:1031800005D05DC2FAFF02015C51F96EFADFE5522B
:10319000E552F094F250010B01E18AD0F250080B95
:1031A00001E186D08150DF6EF290DF500201661996
:1031B000E76E010EE7CFDBFFDFCF66F2DBA81BD0A7
:1031C0005E515F1118E0100EDF1402E0010E01D015
:1031D000000E49D90101FA5D0EE1020EDBCFE6FFD8
:1031E000030EE66E05D05FC2FAFF02015E51F96E72
:1031F000FADFE552E552010EDBAA1CD00201605154
:10320000611118E0200EDF1402E0010E01D0000E63
:103210002AD90101FB5D0EE1020EDBCFE6FF040EB1
:10322000E66E05D061C2FAFF02016051F96EFADF65
:10323000E552E552010EDBAC1CD002016251631174
:1032400018E0400EDF1402E0010E01D0000E0BD991
:103250000101FC5D0EE1020EDBCFE6FF050EE66E1E
:1032600005D063C2FAFF02016251F96EFADFE5523E
:10327000E552010EDBAE1CD002016451651118E06D
:10328000800EDF1402E0010E01D0000EECD8010127
:10329000FD5D0EE1020EDBCFE6FF060EE66E05D009
:1032A00065C2FAFF02016451F96EFADFE552E55298
:1032B000D9CFE1FFE552E7CFD9FFE55200EE35F077
:1032C0000B0EE80403E3E5CFEDFFFBD700EE2AF099
:1032D000140EE80403E3E5CFEDFFFBD7E5CFF4FFE1
:1032E000E5CFF3FFE5CFEAFFE5CFE9FFE5CFDAFF72
:1032F000E550E5CFE0FFE5CFD8FF1000F09EF1925A
:10330000F19081CF66F2F290F2861200B2D841E0DD
:10331000030A34E0010A27E0070A1AE0010A0DE077
:10332000030A42E1FB0EDBCF5AF2FC0EDBCF5BF26D
:10333000938491D8A4D8F08839D0FB0EDBCF5CF20F
:10334000FC0EDBCF5DF2938686D8A2D8F08A2ED011
:10335000FD0EDBCFFAF1FB0EDBCF5EF2FC0EDBCF16
:103360005FF2938823D0FD0EDBCFFBF1FB0EDBCFAA
:1033700060F2FC0EDBCF61F2938A18D0FD0EDBCF3A
:10338000FCF1FB0EDBCF62F2FC0EDBCF63F2938C21
:103390000DD0FD0EDBCFFDF1FB0EDBCF64F2FC0E9A
:1033A000DBCF65F2938E02D0FE0EDB50F28C78D02C
:1033B0007BD8FE0EDB50060A1CE0030A16E0010A69
:1033C00010E0070A0AE0010A05E0030A15E143D804
:1033D00056D812D040D85CD80FD0FD0EDBCFFAF112
:1033E0000BD0FD0EDBCFFBF107D0FD0EDBCFFCF1E8
:1033F00003D0FD0EDBCFFDF153D03BD820E0030A14
:103400001AE0010A14E0070A0EE0010A07E0030AC5
:103410001AE1F09802015A6B5B6B17D0F09A020127
:103420005C6B5D6B12D002015E6B5F6B0ED00201B4
:10343000606B616B0AD00201626B636B06D00201A4
:10344000646B656B02D0FE0EDB50F28C29D012004B
:10345000120012001200FD0EDB50010BF36EF3465A
:10346000F346F3461200E76E020EE7CFDBFFDB50B8
:1034700012001AD8F29CFE0EDB50060A1200F34628
:10348000EF0EF114F310F16EFD0EDBCFF8F1120028
:10349000F70EF114F310F16EFD0EDBCFF9F112000F
:1034A000E552E7CFD9FF1200D9CFE6FFE1CFD9FF30
:0234B000120008
:0E34B200000EE96EEA6E040066EC1AF0EA2ADB
:1034C000080EEA5CD8A45CEF1AF01200EF6AE93E3D
:1034D00066EF1AF01200FF0EE3CF09F009380F0B68
:1034E000060FD8B2070F2A0FAD6E2FEC24F009504B
:1034F0000F0B060FD8B2070F2A0FAD6E2FEC24F07A
:10350000000CFF0EE3CF15F015B0968E15A0969E19
:1035100015B2988015A2989015B4988615A498961F
:1035200015B6988815A6989815B8968015A89690FF
:1035300015BA968215AA969215BC968415AC9694E7
:1035400015BE968615AE96961200EACF04F0E9CF26
:1035500005F0FF0EE3CFEAFFFE0EE3CFE9FFE3A79E
:1035600041D0EECFA0F0EECFA1F0EECFA2F0EECFA3
:10357000A3F0EECFA4F0EECFA5F0EECFA6F0EECF05
:10358000A7F0EECFA8F0EECFA9F0EECFAAF0EECFE5
:10359000ABF0EECFACF0EECFADF0EECFAEF0EECFC5
:1035A000AFF0EECFB0F0EECFB1F0EECFB2F0EECFA5
:1035B000B3F0EECFB4F0EECFB5F0EECFB6F0EECF85
:1035C000B7F0EECFB8F0EECFB9F0EECFBAF0EECF65
:1035D000BBF0EECFBCF0EECFBDF0EECFBEF0EECF45
:1035E000BFF040D0EECF80F0EECF81F0EECF82F092
:1035F000EECF83F0EECF84F0EECF85F0EECF86F005
:10360000EECF87F0EECF88F0EECF89F0EECF8AF0E4
:10361000EECF8BF0EECF8CF0EECF8DF0EECF8EF0C4
:10362000EECF8FF0EECF90F0EECF91F0EECF92F0A4
:10363000EECF93F0EECF94F0EECF95F0EECF96F084
:10364000EECF97F0EECF98F0EECF99F0EECF9AF064
:10365000EECF9BF0EECF9CF0EECF9DF0EECF9EF044
:10366000EECF9FF004C0EAFF05C0E9FF1200E3A11E
:103670001200EACF04F0E9CF05F0FF0EE3CFEAFF36
:10368000FE0EE3CFE9FFE3A941D0C0C0EEFFC1C009
:10369000EEFFC2C0EEFFC3C0EEFFC4C0EEFFC5C068
:1036A000EEFFC6C0EEFFC7C0EEFFC8C0EEFFC9C048
:1036B000EEFFCAC0EEFFCBC0EEFFCCC0EEFFCDC028
:1036C000EEFFCEC0EEFFCFC0EEFFD0C0EEFFD1C008
:1036D000EEFFD2C0EEFFD3C0EEFFD4C0EEFFD5C0E8
:1036E000EEFFD6C0EEFFD7C0EEFFD8C0EEFFD9C0C8
:1036F000EEFFDAC0EEFFDBC0EEFFDCC0EEFFDDC0A8
:10370000EEFFDEC0EEFFDFC0EEFF40D0E0C0EEFF18
:10371000E1C0EEFFE2C0EEFFE3C0EEFFE4C0EEFF6B
:10372000E5C0EEFFE6C0EEFFE7C0EEFFE8C0EEFF4B
:10373000E9C0EEFFEAC0EEFFEBC0EEFFECC0EEFF2B
:10374000EDC0EEFFEEC0EEFFEFC0EEFFF0C0EEFF0B
:10375000F1C0EEFFF2C0EEFFF3C0EEFFF4C0EEFFEB
:10376000F5C0EEFFF6C0EEFFF7C0EEFFF8C0EEFFCB
:10377000F9C0EEFFFAC0EEFFFBC0EEFFFCC0EEFFAB
:10378000FDC0EEFFFEC0EEFFFFC0EEFF04C0EAFF8B
:1037900005C0E9FF1200F2B4120016500F0AD8B4A7
:1037A0001200FF0EE3CF0AF0FE0EE3CF0BF0FD0E8A
:1037B000E3CF0CF0FC0EE3CF0DF00A2A16A08D8E9D
:1037C0000B2A16A28F800C2A16A48F860D2A16A605
:1037D0008F88FB0EE3CF0EF0FA0EE3CF0FF0F90E59
:1037E000E3CF10F0F80EE3CF11F00E2A8D800F2AF0
:1037F0008D82102A8D84112A8D862EEC1CF00A2EC3
:1038000004EF1CF016A08D9E0B2E09EF1CF016A2E3
:103810008F900C2E0EEF1CF016A48F9600000D2E2C
:1038200014EF1CF016A68F9800000E2E19EF1CF056
:103830008D9000000F2E1EEF1CF08D920000102EB8
:1038400023EF1CF08D940000112E28EF1CF08D96B4
:1038500050EC1CF0133EFFEF1BF01200D70E136E5E
:10386000000000000000000046EC1CF0132E30EFBA
:103870001CF0D70E136E000000000000000046ECA4
:103880001CF0132E3BEF1CF000001200000049EF6B
:103890001CF000000000000000000000000012000A
:0E38A000030E146E0000142E52EF1CF01200E6
:0238AE00E66AC8
:1038B000E66AE66AE66AB6EC28F0E552E552E552B9
:1038C000E552FFD702013E5101E1010CFF0E3E5DC2
:1038D00004E1400E0101D515120081AC010C81AE4E
:1038E000000CD8EC0AF002013E512D6E2E6AF35006
:1038F0002D5CF4502E5801E2000C010C800E0101E9
:10390000D51501E0000C010C7FD9FE0EDB50FF083D
:1039100004E0FD0EDB50FF0804E1FE0EDB68FD0E47
:10392000DB68FE0EDBCF3EF2FD0EDBCF3FF271D146
:103930006BD90101B969E150FD0F5FD901E1B9917E
:10394000D950FB0F5AD901E1B993D950F90F55D984
:1039500001E1B995D950F70F50D901E1B99759D183
:1039600053D9F70EDBCFE6FFF80EDBCFE6FFF90EFB
:10397000DBCFE6FFFA0EDBCFE6FFFB0EDBCFE6FF89
:10398000FC0EDBCFE6FFFD0EDBCFE6FFFE0EDBCF4E
:10399000E6FF50D93ED138D9E65202013E6B020112
:1039A000406949EC0EF0978497829780928A9286BC
:1039B000928492829280F70EE66E37EC13F0E55215
:1039C000998E998C998A9988978C978A97889786E7
:1039D000010EE66EE66AE66EE66AE66EE66AE66E98
:1039E000E66A28D9E5EC24F0150EE66E010EE66EC7
:1039F00023EC23F0E552E5527EEC19F051EC0AF08D
:103A00000CD98BEC0EF004EC28F0E55202D1010148
:103A1000C3511200C30EE66E010EE66EEBEC0EF023
:103A2000E552E5520201010E706F0DEF1EF0ECD869
:103A3000080EE126FE0EDB500EE10101D651E66EC6
:103A4000E66AE251E66EE66ADC0E2B6E400ECCD8DA
:103A5000F56E070EBCD0FE0EDB046BE10101D55103
:103A600004E1CF0E2B6E400EB8D0010ED51502E04A
:103A7000010E01D0000EDF6E020ED51502E0010E20
:103A800001D0000EE76E010EE7CFDBFF040ED51567
:103A900002E0010E01D0000EE76E020EE7CFDBFF61
:103AA000080ED51502E0010E01D0000EE76E030EE0
:103AB000E7CFDBFF100ED51502E0010E01D0000E9E
:103AC000E76E040EE7CFDBFF200ED51502E0010EF6
:103AD00001D0000EE76E050EE7CFDBFF400ED515D7
:103AE00002E0010E01D0000EE76E060EE7CFDBFF0D
:103AF000800ED51502E0010E01D0000EE76E070E14
:103B0000E7CFDBFF93D8060E91D8050E8FD8040EB1
:103B10008DD8030E8BD8020E89D8010E87D8DFCF3F
:103B2000E6FFE66AB00E2B6E400E5ED8F56E130E01
:103B30004ED0FE0EDB5002084DE1800E0101D5157E
:103B400002E0010E01D0000E2B6E2C6A2BBE2C68F9
:103B50002BC0E6FF2CC0E6FF400ED51502E0010E9B
:103B600001D0000E2D6E2E6A2DBE2E682DC0E6FFF0
:103B70002EC0E6FF080ED51502E0010E01D0000EA2
:103B80002F6E306A2FBE30682FC0E6FF30C0E6FFD0
:103B9000040ED51502E0010E01D0000E316E326A1E
:103BA00031BE326831C0E6FF32C0E6FFD551E66E65
:103BB000E66A6A0E336E400E346E356A33C0E6FF35
:103BC000E66E35C0E6FFECEC25F0F56E0D0EE15E1D
:103BD000F55007D05C0E2B6E400E06D8E552E5522C
:103BE000E552D9CFE1FF15D02C6E2D6A2BC0E6FF30
:103BF000E66E2DC0E6FFECEF25F0E96EFF0EDA2051
:103C0000EA6EEE50ED101200D9CFE6FFE1CFD9FFFA
:103C10001200E552E7CFD9FF1200A30EE66E010EA7
:103C2000E66E0DEC0FF0E552E5521200DBCFE6FF39
:103C3000E66A12007DDEF56E080EE15EF5501200B8
:103C400071D9FD0EDBCF2CF00001800E2C140DE19C
:103C5000FC0EDBCF2DF0FD0EDBCF2EF02E341BE261
:103C60002D50FF08000E2E5416E265D9FE0EDBCF54
:103C7000E6FFE66A9B0E2B6E410E2C6E2D6A2BC062
:103C8000E6FFE66E2DC0E6FFECEC25F0F56E070EC4
:103C9000E15EF55034D0FE0EDB50080A2AE00F0A30
:103CA00024E0010A1EE0030A18E0010A12E0070AF4
:103CB0000CE0010A06E0030A20E1FC0EDBCFA7F1CD
:103CC0001ED0FC0EDBCFA8F11AD0FC0EDBCFA9F181
:103CD00016D0FC0EDBCFAAF112D0FC0EDBCFABF17D
:103CE0000ED0FC0EDBCFACF10AD0FC0EDBCFADF179
:103CF00006D0FC0EDBCFAEF102D0FE0EDB5017D1AA
:103D00003FD13ED10FD9FD0EDBCF2BF0FE0EDBCF26
:103D10002CF02C3407E22B50FF08000E2C5402E24A
:103D2000FF0E0AD0FE0EDBCF2CF0800E2C1402E02A
:103D3000000E02D0FD0EDB50FAD011D9F90EDB5087
:103D400003E031D92B50DF6EF80EDB5004E02ED9A2
:103D5000010E2BC0DBFFDFCFE6FFE66AFB0EC6D805
:103D6000010EDBCFE6FFE66AFA0EC0D8D9CFE1FF3D
:103D7000DED0F5D8F70EDB5002E1EDD801D013D933
:103D8000CCD8FB0EB3D8F60EDB5002E1DBD801D065
:103D90000DD9C3D8FA0EAAD8F50EDB5002E1DBD854
:103DA00001D001D9BAD8F90EA1D8F40EDB5002E146
:103DB000C9D801D0FBD8B1D8F80E98D8D9CFE1FF37
:103DC000B6D0B0D8FD0E99D80101E66FE76B7F0E33
:103DD000E65F000EE75BFC0E90D80101E86FE96B2F
:103DE0007F0EE85F000EE95BE651E825EC6FE751D6
:103DF000E921ED6FE651E85DEA6FE751E959EB6FB4
:103E0000F90EDB5004E0EA6DEB1F000EEB23F80E19
:103E1000DB5004E0EC6DED1F000EED237F0E2C6AED
:103E2000EA252B6EEB51A8D8E66EE66AFB0E5ED84B
:103E30007F0E01012C6AEC252B6EED519DD8E66EAC
:103E4000E66AFA0E53D873D06DD8FD0E56D801012C
:103E5000EE6FEF6B7F0EEE5F000EEF5BFC0E4DD84A
:103E60000101F06FF16B7F0EF05F000EF15BEE5120
:103E7000F0252B6EEF51F1219CD80101F46FF56B09
:103E8000EE51F05D2B6EF151EF5593D80101F26FB9
:103E9000F36BF70EDB5002E078D804D0F2C1E6FFF6
:103EA000F3C1E6FFFB0E22D8F50EDB5002E06DD821
:103EB00004D0F2C1E6FFF3C1E6FFF90E17D8F60E03
:103EC000DB5002E069D804D0F4C1E6FFF5C1E6FF9B
:103ED000FA0E0CD8F40EDB5002E05ED804D0F4C128
:103EE000E6FFF5C1E6FFF80E01D821D0DBCFE6FFF3
:103EF000A7DEE552E552E5521200DBCFE6FFFE0EEB
:103F0000DBCFE6FF1BEC22F0E552E5521200FF0E7C
:103F1000D8802B56000E2C5612002BC0E6FF2CC06A
:103F2000E6FF1200D9CFE6FFE1CFD9FF1200E5523C
:103F3000E7CFD9FF1200FC0EDBCFE6FFFD0EDBCF93
:103F4000E6FF1200010EDB502B6E2C6A1200DADE47
:103F5000E552E5521200DF502B6E2C6A1200E2DFB0
:103F6000020EE126FD0EC9DFDF6EFC0EC6DFE76E36
:103F7000010EE7CFDBFF12002C22CFDFA7EF1FF0EF
:103F8000D1DFD9DFFE0EB2DFD2D7F2C12BF0F3C101
:103F90002CF0BDDF8DEF1FF0F4C12BF0F5C12CF03C
:103FA000B6DF8DEF1FF0D7DF87EF1FF0CBDF87EF96
:0E3FB0001FF02C6E7F0E2B26000EBCEF1FF0B4
:023FBE0045724A
:103FC000726F723A20696E76616C696420616E610D
:103FD0006C6F6720706F7274206E756D62657220F1
:103FE00025640D00496C6C6567616C20494F207039
:103FF0006F727420256420726571756573746564D1
:1040000000496C6C6567616C20494F20706F727459
:10401000202564207265717565737465640D0049AF
:104020006C6C6567616C20706F7274206469726576
:104030006374696F6E00496E76616C6964204F49E4
:1040400020506F72740D00496E76616C6964204F68
:10405000492046756E6374696F6E0D00496E766116
:104060006C696420747970650A00776966693A2022
:1040700025642C20776966696163746976653A20E6
:1040800025642C206669656C6463746C3A20256431
:104090002C206175746F6E6F6D6F75733A20256497
:1040A0002C2064697361626C65643A2025640A009F
:1040B0006F695F616E616C6F6731333A20256425EB
:1040C000642564256425642564256425640A004C00
:1040D0006567616379206D6F64650A006D61737453
:1040E00065725F76657273696F6E3A202564206F22
:1040F000695F616E616C6F6731343A2025640A0034
:1041000054696D6572206E756D6265722028256434
:1041100029206F7574206F662072616E67650D00CF
:10412000556E726567697374657220696E74657225
:10413000727570743A20706F7274202564206973F0
:10414000206F7574206F662072616E67650D005276
:104150006567697374657220696E746572727570D3
:10416000743A20706F7274202564206973206F7513
:1041700074206F662072616E67650D0053657474FC
:10418000696E672050574D207769746820626164BA
:104190002076616C75652025640A0043616E6E6F40
:1041A000742073657420746865204D6F746F72207D
:1041B00025642050574D20746F2025642E205661B1
:1041C0006C75652052616E676520697320302E2EF4
:1041D0003235350D004372797374616C20436F6D15
:1041E0007065746974696F6E2050726F6A6563746C
:1041F0002E204175746F6E6F6D6F75732054696DED
:10420000653A202564207365632E204F70657261C6
:10421000746F722054696D653A202564207365635C
:104220002E0D0D0043616E6E6F74206265207275F5
:104230006E207769746820576946692064657669DD
:1042400063652E20506C6561736520636F6E6E65CB
:104250006374204372797374616C20616E642072A0
:104260006573746172742074686520636F6E747214
:104270006F6C6C65722E0A005769466920436F6D3A
:104280007065746974696F6E2050726F6A656374CB
:104290002E0D0D004D617374657220636F6465208F
:1042A00076657273696F6E3A2025642E20506C65B6
:1042B0006173652075706461746520746865206D34
:1042C000617374657220636F64652E0A004D6173BB
:1042D00074657220636F64652076657273696F6EB2
:0742E0003A2025640D0D00DA
:0142E70000D6
:0842E80066D9020EE126FE0E6C
:1042F000DB0402E1010E07D0FE0EDB50020802E1F2
:10430000020E01D0030EDF6EDF500101C515E76E0E
:10431000010EE7CFDBFFDB5002E1000E01D0010E02
:10432000D9CFE1FF4DD147D9FE0EDB5022E101018B
:10433000C551010B03E1C551020B06E0C551010B4C
:1043400005E0C551020B02E1010E0FD0C551010B72
:1043500005E1C551020B02E0020E07D0C551010B69
:1043600008E0C551020B05E0010EF36EFE0EF3CF1F
:10437000DBFFFE0EDB5024D11ED9E652DF6A10D9D6
:10438000020A28E0030A54E1FD0EDB50040A1DE096
:10439000070A12E0010A0BE0030A4AE10101CD51CC
:1043A0002B6E2C6A2C342DE201D935E32AD0370E3E
:1043B0000101CD5D26E22FD00101CE512B6E2C6A7A
:1043C0002C341FE2F3D827E31CD0370E0101CE5D59
:1043D00018E221D0FD0EDB50040A22E0070A13E0A8
:1043E000010A0BE0030A24E10101D3512B6E2C6A70
:1043F0002C3407E2DBD80FE304D0370E0101D35D84
:104400000AE3000E0BD00101D4512B6E2C6A2C3420
:1044100004E2CCD802E2010E01D0000EDF6E08D01B
:10442000370E0101D45D02E2010E01D0000EDF6EF5
:10443000DF50E552C5D0BFD8E6527F0EDF6E020EC8
:104440000101B75D0AE0040EB75D09E00101C55145
:10445000010B05E1C551020B02E1DF5045D0A0D8A8
:10446000020A22E0030A3FE1FD0EDB50060A19E0D2
:10447000030A14E0010A0FE0070A0AE0010A05E056
:10448000030A31E1C9C1DFFF2ED0CAC1DFFF2BD043
:10449000CBC1DFFF28D0CCC1DFFF25D0CDC1DFFFEE
:1044A00022D0CEC1DFFF1FD0FD0EDB50060A19E07F
:1044B000030A14E0010A0FE0070A0AE0010A05E016
:1044C000030A11E1CFC1DFFF0ED0D0C1DFFF0BD057
:1044D000D1C1DFFF08D0D2C1DFFF05D0D3C1DFFFDC
:1044E00002D0D4C1DFFFDF50E5526AD064D8FD0EA0
:1044F000DBCFE6FF55D8E66E9EDFE552E55260D091
:104500002ED801E042D834D02AD801E03ED830D0AD
:1045100026D801E03AD82CD04ED8FD0EDBCFE9FFEB
:10452000FE0EDBCFEAFFBFC1EFFFFB0EDBCFE9FFE3
:10453000FC0EDBCFEAFFBAC1EFFF42D03CD844D833
:104540001BDFE552E552DF6EDFCFE6FFFC0EDBCF6F
:10455000E6FF6AEC12F0E552E552E55231D02BD875
:1045600033D869DFE552E552DF6EFB0EDB501200F7
:10457000DFCFE6FFE66AFC0EDBCFE6FF20EC1EF0A5
:10458000E552E552E552E5521BD0DF502B6E2C6A06
:10459000FF0ED8802B56000E2C562B50DF6E1200CB
:1045A000FE0EDBCFE6FFBFDEE55212002B50C8083F
:1045B000000E2C541200D9CFE6FFE1CFD9FF120034
:1045C000E552E7CFD9FF1200E652FD0EDBCFE6FF42
:0845D000FE0EDBCFE6FF120036
:0845D800150EE66E010EE66E01
:1045E0000DD8E552E552020173697469150EE66E45
:1045F000010EE66E28D8E552E55212001ED9020ED1
:10460000E12624D9010E2BC0DBFFFE0EDB50010B8F
:1046100005E0010EDBCFE6FFFC0E04D0010EDBCF80
:10462000E6FFEC0EE66E5CEC27F0E552E5529F9853
:104630009F9A949C948EAE50DF6EAE50DF6E9E9A21
:10464000D9CFE1FFFFD0F9D8E65200D92B50DF6E69
:10465000FE0EDB50010B04E0DFCFE6FFFC0E03D0C3
:10466000DFCFE6FFEC0EE66E2AEC27F0E552E552CE
:10467000A59AA59898929884E552E4D0DED8E6529F
:1046800002012E5102E1000E0FD02A512A2BEA6AB4
:10469000020FE96E070EEA22EFCFDFFF1F0E2A1787
:1046A0009D9A2E079D8ADF50E552CCD002012E51F3
:1046B000120002012F511200C0D8E65202012F5100
:1046C00002E1000E0FD02B512B2BEA6A220FE96E6C
:1046D000070EEA22EFCFDFFF3F0E2B17A39A2F071B
:1046E000A38ADF50E552AED0A8D8400E0201385D53
:1046F000FCE29D983651362BEA6A620FE96E070E8E
:10470000EA22FE0EDBCFEFFF3F0E3617382B9D88D7
:1047100099D093D8100E0201395DFCE2A39837516D
:10472000372BEA6AA20FE96E070EEA22FE0EDBCFF4
:10473000EFFF0F0E3717392BA38884D0200E02010C
:104740002E5D13E22C512C2BEA6A020FE96E070E44
:10475000EA22AECFEFFF1F0E2C172E2BABA203D0F9
:10476000AB98AB88302BABB4322B120066D8FD0E61
:10477000DBCF3AF2FE0EDBCF3BF264D002013A51BE
:104780003B1101E1000C010C58D8E6526E50DF6E6F
:1047900002013A513B110BE0DFCFE6FF05D03BC2EF
:1047A000FAFF02013A51F96EFADFE5520FD0400EDE
:1047B0002F5D0CE22D512D2BEA6A220FE96E070EB8
:1047C000EA22DFCFEFFF3F0E2D172F2B6BA204D075
:1047D0006B986B880201312B6BA402D00201332B42
:1047E000E55230D00201385102E19D981200345157
:1047F000342BEA6A620FE96E070EEA22EF50AD6EC3
:104800003F0E3417380712000201395102E1A39814
:1048100012003551352BEA6AA20FE96E070EEA2223
:10482000EF506D6E0F0E35173907120006D8FE0EC9
:10483000DBCFE6FF59DFE55205D0D9CFE6FFE1CF68
:10484000D9FF1200E552E7CFD9FF1200FF0EE76E45
:0E485000FD0EDBCF2BF0E7502B162C6A12006A
:02485E009EA812
:10486000FED71200CDD8FE0EDBCFE6FF6BEC1AF0C0
:10487000E552B9D0C5D80101E150FD0F506FFF0ED0
:10488000DA20516F010EEA6A5025E96E5151EA2291
:10489000B1D850C1E9FF51C1EAFFACD8A4D0B0D81B
:1048A000FD0EDBCF2BF0FE0EDBCF2CF02D6A2BC0E4
:1048B000E6FF2CC0E6FF2DC0E6FF000EE66E010EFF
:1048C000E66E55EC25F0F56E050EE15EF550000E36
:1048D000E66E010EE66E6EEC25F0E552E552F3CF82
:1048E00054F1F4CF55F10101F43408E25451500869
:1048F000000E555503E2500E546F556B566B576BB7
:1049000057515519E8AE02D0553504D05451565D73
:10491000555157590EE2000E5625E96E010E5721EA
:10492000EA6EEF50AD6E9BDF0101562B000E572350
:10493000E7D7E552E7CFD9FF120062D80101526BE9
:104940001A0E525D0DE2FD0EDBCFE9FFDB2AFE0EF3
:10495000DBCFEAFF01E3DB2A4DD80101522BF0D770
:1049600042D00101C30E506F010E516F0101C351BE
:104970000201676F686B6951671902E16A51681932
:1049800016E00101E3B50ED069C2E6FF6BEC1AF048
:10499000E55267C2E6FF6BEC1AF0E5520D0EAD6E04
:1049A0005EDF0101E39567C269F268C26AF2020143
:1049B000692B000E6A236A3507E26951FF08000E71
:1049C0006A5502E2696B6A6B1200150EE66E3C0EC8
:1049D000E66E5CEC27F0E552E552320EE66E6BECCB
:1049E00028F0E55212000D0EAD6E39DFE552E7CF2B
:1049F000D9FF1200EF50E66E6BEC1AF0E552120090
:0A4A0000D9CFE6FFE1CFD9FF120085
:064A0A001E0EF66E080E00
:104A1000F76E000EF86E02010900F550466F0900AE
:104A2000F550476F03E1466701D03DD00900F550CE
:104A3000416F0900F550426F0900F550436F0900BE
:104A40000900F550E96E0900F550EA6E0900090009
:104A50000900F550446F0900F550456F0900090041
:104A6000F6CF48F2F7CF49F2F8CF4AF241C2F6FF4B
:104A700042C2F7FF43C2F8FF0201445302E145532B
:104A800007E00900F550EE6E4407F8E24507F9D754
:104A900048C2F6FF49C2F7FF4AC2F8FF02014607C3
:0A4AA000000E475BBFD712001200A2
:064AAA00FB0EE3CFF6FF56
:104AB000FC0EE3CFF7FFFD0EE3CFF8FFFE0EE3CFD2
:104AC000E9FFFF0EE3CFEAFFE9CFF3FFEACFF4FF00
:104AD0000900F5CFEFFFEE66FBD71200FE0EE3CF25
:104AE000E9FFFF0EE3CFEAFFF36AF46AEE5203E058
:104AF000F34AF42AFBD71200FF0EE3CFF8FFE5528A
:104B0000FF0EE3CFF7FFE552FF0EE3CFF6FFE552CE
:104B1000E66AE66AE66A0900F55209E0FD0EE32A54
:104B200005E1FE0EE32A02E1FF0EE32AF4D7FD0EB3
:104B3000E3CF1CF0FE0EE3CF1DF0FF0EE3CF1EF01F
:024B4000120061
:0E4B42001DC029F01D502202F4CF1CF0F3CF4D
:104B50001BF01E502302F4CF1EF0F3CF1DF02202F3
:104B6000F3501C26F4501D22E86A1E22295023020D
:104B7000F3501C26F4501D22E86A1E22000C1EC0B1
:104B80002AF01DC029F01D502202F4CF1CF0F3CFF3
:104B90001BF01E502302F4CF1EF0F3CF1DF02202B3
:104BA000F3501C26F4501D22E86A1E2229502302CD
:104BB000F3501C26F4501D22E86A1E2223AEE5EFB6
:104BC00025F029501D5E2A501E5A2AAE000C225094
:084BD0001D5E23501E5A000C6B
:084BD800D9CFE6FFDACFE6FFBA
:104BE000E1CFD9FFE2CFDAFFE652E652E652E652D3
:104BF000D950FB0F2B6EFF0EDA202C6E2BC0DEFF80
:104C0000DD6EDECFE6FFDDCFE6FFFB0EDBCFE6FF9E
:104C1000FC0EDBCFE6FFFD0EDBCFE6FF73C2E6FF47
:104C200074C2E6FF56EC04F0F56E070EE15C02E29A
:104C3000E16AE552E16EF550020EF3CFDBFF030EA1
:104C4000F4CFDBFF020EDBCF2BF0030EDBCF2CF01B
:104C50002BC0F3FF2CC0F4FFD9CFE1FFDACFE2FF86
:0C4C6000E552E5CFDAFFE7CFD9FF1200E4
:044C6C00D9CFE6FFB7
:104C7000E1CFD9FF060EE126E66A010EE66E030ECD
:104C8000E66EE66A80EC22F0E552E552E552E55226
:104C9000060EE66EBBEC12F0E552E66ED950020F3E
:104CA000E96EDACFEAFFE552E750EE6EED6AD950D1
:104CB000020FE96EDACFEAFFEE50ED10DDE1FF0EF4
:104CC000E66EE66A010EE66E20EC1EF0E552E55255
:104CD000E552900EE66E010EE66EE66AE66A00ECBC
:104CE0000DF0E552E552E552E5527F0EE66EE66ABA
:0A4CF000010EE66E20EC1EF0C8D79E
:064CFA00D9CFE6FFDACF7E
:104D0000E6FFE1CFD9FFE2CFDAFFFB0EDBCF2BF0DE
:104D1000FC0EDBCF2CF00001800E2C141AE1FB0EF0
:104D2000DBCFE9FFFC0EDBCFEAFFEECFF3FFEDCFE9
:104D3000F4FFEE2A000EEF22F3CFE9FFF4CFEAFFF3
:104D4000FD0EDBCFEFFFEF502C6AF36E2CC0F4FFAB
:104D500010D0FB0EDB50FE0806E1FD0EDBCFE6FFB8
:104D60007BEC28F005D0FD0EDBCFE6FF16EC24F03F
:0E4D7000E552E552E5CFDAFFE7CFD9FF12009A
:024D7E001B50C8
:104D80002002F3CF17F0F4CF18F02102F3501826C9
:104D9000000EF420196E1B502202F3501926000E4B
:104DA000F4201A6E1B502302F3501A261C502002C6
:104DB000F3501826F4501922000E1A221C5021021A
:104DC000F3501926F4501A221C502202F3501A26CE
:104DD0001D502002F3501926F4501A221D502102B2
:0E4DE000F3501A261E502002F3501A2612001D
:024DEE00D9CF1B
:104DF000E6FFDACFE6FFE1CFD9FFE2CFDAFF3F0EE1
:104E0000C716C66AFD0EDB50C612FB0EDB50C7127A
:104E1000FC0EDB50030A09E0010A04E0020A06E185
:104E2000C78C04D0C78CC68801D0C688FD0EDB5065
:104E3000050A03E0010A04E1928A9486C79E01D024
:104E40009496949A9488C68AE552E5CFDAFFE7CF24
:044E5000D9FF120074
:0C4E5400D9CFE6FFDACFE6FFE1CFD9FFAF
:104E6000E2CFDAFF6C6A6B6AFD0EDBB06C88DBA206
:104E700002D06C8C6B8CDBB46C8EDBA602D06B88A2
:104E800001D06B8ADBA802D06C8401D06C94DBACBF
:104E900002D0A38A01D0A39ADBAE02D0A38801D0AE
:104EA000A398FC0EDB506F6E6C8A6B8EE552E5CFDB
:084EB000DAFFE7CFD9FF120081
:084EB800D9CFE6FFDACFE6FFD7
:104EC000E1CFD9FFE2CFDAFFAC6AAB6AFD0EDBB00F
:104ED000AC88DBA202D0AC8CAB8CDBB4AC8EDBA696
:104EE00002D0AB8801D0AB8ADBA802D0AC8401D061
:104EF000AC94DBAC02D09D8A01D09D9ADBAE02D08F
:104F00009D8801D09D98FC0EDB50AF6EAC8AAB8EB5
:0C4F1000E552E5CFDAFFE7CFD9FF120031
:044F1C00D9CFE6FF04
:104F2000DACFE6FFE1CFD9FFE2CFDAFFC26AC16A8A
:104F3000C06AFC0EDB407F0B3C0BC26EFD0EDB50EB
:104F40000F0B2B6EFC0EDB38F00B300B2B10C16EF1
:104F5000FD0EDB380F0B070B2B6EFD0EDB50800BAD
:104F60002B10C06EFC0EDBAE03D09E9C9D8CF28C91
:0E4F7000C280E552E5CFDAFFE7CFD9FF12008D
:024F7E001A6AAD
:104F8000196A186A176A200EE76ED8901B361C360D
:104F90001D361E361736183619361A362050175C4D
:104FA000215018582250195823501A5809E32050FC
:104FB000175E2150185A2250195A23501A5A1B2A88
:064FC000E72EE4D7120009
:0A4FC600D9CFE6FFDACFE6FFE1CF16
:104FD000D9FFE2CFDAFFFD0EDB507E0BCD6EFD0E6A
:104FE000DBAC02D0CD8E01D0CD9ECF6ACE6A9E9032
:104FF000DBAE02D09D8001D09D90CD80E552E5CF03
:08500000DAFFE7CFD9FF12002F
:08500800E66AE66A84EC1CF084
:10501000E552E552E66AE66AE66AE66AE66AE66A42
:10502000010EE66EE66EE66EE66EE66EE66EE66E25
:10503000E66EE66EE66E040EE66ED2EC11F0F56EEC
:08504000110EE15EF5501200B3
:08504800D9CFE6FFDACFE6FF45
:10505000E1CFD9FFE2CFDAFFE652E652C350DF6E6E
:10506000010EC4CFDBFFDECF2BF0DDCF2CF02BC049
:10507000F3FF2CC0F4FFE552E552E552E5CFDAFF2D
:06508000E7CFD9FF12008A
:0A5086001A6A196A100EE76ED8903E
:105090001D361E3619361A362250195C23501A58FE
:1050A00005E32250195E23501A5A1D2AE72EF0D725
:0250B0001200EC
:0E50B200F36AF46AFF0EE124E96EFF0EE220BD
:1050C000EA6EED6607D02F0EEF6404D03A0EEF6063
:0650D00001D0F32A1200DA
:0A50D600FF0EE350366E480E01D0C5
:1050E0004C0EE76EE72EFED7E76AE72EFED7362E88
:0650F000F7D700001200DA
:0A50F600FF0EE350ACBA04D0AF6A1D
:10510000AB8EAC8A949CACA2FED7AD6EF36EF46A03
:0251100012008B
:0E511200FF0EE350E84E1200000000D000D067
:0851200000D0E82EFAD71200BE
:0851280000000000000000007F
:0E513000000000000000000000000000000071
:02513E0030310E
:0F5140003233343536373839616263646566005F
:01514F00005F
:10515000878F979FA7AFB7BFC7CFD7DFE7EFF7FF1F
:0C516000D9CFE6FFE552E7CFD9FF1200DF
:04516C00D9CFE6FFB2
:08517000E552E7CFD9FF120060
:06517800C2909D9C120094
:02517E00C282EB
:0251800012001B
:02518200FEFF2E
:0C5184000000000000000000000000001F
:0651900000000000000019
:0A519600000000000000000000000F
:0351A0000000FF0D
:0451A3000000000008
:0951A700000000000000000000FF
:1051B00000000000000000000000000000000000EF
:1051C00000000000000000000000000000000000DF
:1051D00000000000000000000000000000000000CF
:0351E000000000CC
:0351E300000000C9
:0551E6000000001400B0
:020000040030CA
:0E000000FFFEFEFCFFFEFBFFFFFFFFFFFFFF0A
:00000001FF
