:020000040000FA
:060800004CEF16F012009F
:020806001200DE
:06080800EEEF0DF01200FE
:02080E00C250D6
:08081000020B01E0010E1200D1
:0608180056EF18F012007B
:02081E000900CF
:10082000673F0000FF01000001000000A54E00002E
:10083000BC02000004000000A04E0000EE07000013
:10084000050000009D4E0000C302000003000000F0
:10085000614E0000B20700003C0000005D4E000049
:10086000B802000004000000504E0000A302000087
:100870000D0000003E4E0000730200001200000058
:0C0880003C4E0000C80200000200000016
:04088C0082EC09F001
:10089000FB0EDBCFF3FFDB06F35000090AE0D0ECE0
:1008A00009F0FA0E3BEC0AF0F3E12C1CF1E1010E29
:1008B00001D0000EB1EF09F082EC09F03B0EE1240B
:1008C00002E3E168E652E16E010EDB6A020EDB6ACA
:1008D000F90EDBCFF6FFFA0EDBCFF7FFFB0EDBCF17
:1008E000F8FF0800F550DF6EDF5002E1D7EF08F0A7
:1008F000250EDF5C02E0CAEF08F0030EDB6A040E8F
:10090000DB6A050EDB6A060EDB6A070EDB6AEAECC1
:1009100008F02D0EDF5C0CE02B0EDF5C09E0200EF2
:10092000DF5C06E0230EDF5C03E0300EDF5C1AE1E3
:10093000DF50300A14E0130A0FE0030A0AE00B0A42
:1009400005E0060AE4E1030EDB80E1D7030EDB825B
:10095000DED7030EDB84DBD7030EDB86D8D7030E8E
:10096000DB88D5D72A0EDF5C1BE1E6EC08F034EC1F
:1009700009F010E0030EDB801D681E68130EDBCF4C
:1009800022F0140EDBCF23F034EC24F0040E1BC055
:10099000DBFF03D0130E1DEC09F0EAEC08F00BD0DE
:1009A000090EDB6A8BEC09F003E0FFEC09F0FAD7E3
:1009B000090E1DEC09F0030EDBB0DB982E0EDF5C98
:1009C0001BE1EAEC08F02A0EDF5C0BE1E6EC08F034
:1009D00034EC09F003E1130E6FEC09F0EAEC08F0D7
:1009E0000BD0090EDB6A8BEC09F003E0FFEC09F099
:1009F000FAD7090E6FEC09F0680EDF5C07E1EAEC4C
:100A000008F0680EDF5C1DE1030E18D0740EDF5C89
:100A100017E07A0EDF5C14E0480EDF5C06E0540E4F
:100A2000DF5C03E05A0EDF5C02E1020E07D06C0EC1
:100A3000DF5C03E06A0EDF5C04E1010EC2EC09F04A
:100A4000C9DBDF506E0A01E181D31E0A01E192D1B8
:100A5000200A01E18FD13F0A01E149D11A0A01E1DF
:100A600046D10D0A01E143D1200A01E140D13A0A01
:100A700001E13DD1200A01E13AD1260A01E135D157
:100A80000D0A01E132D11A0A01E1D9D0200A4AE067
:100A9000300A1FE0460A0EE0250A01E085D3D9504E
:100AA000F90FE96EFF0EDA20EA6E010EEE5E000E1F
:100AB000EE5AEE5AD0EC09F0250EE66E95DB03E116
:100AC0002C1C01E16BD3CCEC09F001E26DD3DB2AE5
:100AD0006BD3080EDB6A040EDB50010806E2040E3D
:100AE000DB0494EC09F0DB508BDB080EDB5009E0F3
:100AF000030EDB50010B05E172DB01E04FD3080E62
:100B0000DB6A64DBEFCFDFFF44EC0AF003E12C1C6F
:100B100001E144D3CCEC09F001E3DB2A60DB01E125
:100B200043D33CD3070EDB5002080FE110EC0AF070
:100B3000030ED7EC09F00E0EEECFDBFF0F0EEECF5B
:100B4000DBFF100EEECFDBFF20D0F70EDBCF2EF059
:100B5000F80EDBCF2FF0020E2E5E000E2F5AF70E8E
:100B60002EC0DBFFF80E2FC0DBFF2EC0E9FF2FC029
:100B7000EAFFC7EC09F02D6A0E0E2BC0DBFF0F0E4B
:100B80002CC0DBFF100E2DC0DBFF0E0EDBCFE6FF0F
:100B90000F0EDBCFE6FF100EDBCFE6FFF1EC23F00C
:100BA000E552E552E552130E1CC0DBFF140E1DC0CA
:100BB000DBFF060EDB5005E0130E0BEC0AF001E242
:100BC0006ADB2FEC0AF002E2130E37DBF2EC09F0DD
:100BD00006E0040E0BEC0AF002E2050E2EDB030E1B
:100BE000DBB005D0FCDA01E0D9D2080EDB6A090ED1
:100BF000DB6A0E0EDBCFF6FF0F0EDBCFF7FF100E1A
:100C0000DBCFF8FF0800F550DF6EDF5014E035EC65
:100C10000AF011E244EC0AF003E12C1C01E1BED21F
:100C2000BBDB01E3DB2A090EDB2AD9500E0FE96E8C
:100C3000000ECBDBE7D7D3DA01E1B6D2AFD2C6DA0A
:100C4000110EEECFDBFF120EEDCFDBFF110EDBCF6F
:100C5000E6FF120EDBCFE6FFE3EC23F0E552E552B0
:100C6000130EF3CFDBFF140EF4CFDBFF060EDB50C9
:100C700004E0130ED0DB01E20EDB2FEC0AF002E2FF
:100C8000130EDBDAAFDB05E0040EC5DB02E2050E76
:100C9000D4DA030EDBB005D0A2DA01E07FD2080E71
:100CA000DB6A090EDB6A110EDBCFE9FF120EDBCF28
:100CB000EAFFEFCFDFFFDF5014E0D7DB12E2E4DB27
:100CC00003E12C1C01E16AD267DB01E3DB2A090E98
:100CD000DB2A110EDB2ADBCFE9FF120EE8E3DB2A69
:100CE000E6D77DDA01E160D259D2030EDB8E070E22
:100CF000DB0410E195DB040E5ADB0A0EEECFDBFFBE
:100D00000B0EEECFDBFF0C0EEECFDBFF0D0EEECFAA
:100D1000DBFF6CD0070EDB5003082CE1030EDBAECB
:100D20000DD0B2DA020E76DAEFCF2BF02C6A2D6AF4
:100D30002E6A2BAE39D02C682D6835D0F70EDBCF5C
:100D40002CF0F80EDBCF2DF0020E2C5E000E2D5A8B
:100D5000F70E2CC0DBFFF80E2DC0DBFF2CC0E9FF27
:100D60002DC0EAFFEFCF2BF00A0E2BC0DBFF0B0EDE
:100D7000DB6A38D0070EDB50020809E1030EDBAE58
:100D800004D059DB2DAE10D00ED055DB0DD0030EA4
:100D9000DBAE12D079DA020E3DDAF9DA2D6A2E6A6C
:100DA0002CAE02D02D682E68E2DA0C0E2DC0DBFFCF
:100DB0000D0E2EC0DBFF1AD0F70EDBCF2DF0F80E94
:100DC000DBCF2EF0020E2D5E000E2E5AF70E2DC038
:100DD000DBFFF80E2EC0DBFF2DC0E9FF2EC0EAFFBF
:100DE000D6DAC5DA0C0EDB6A0D0EDB6A060EDB50B6
:100DF00005E1010EF36E050EF3CFDBFF150EDB6A86
:100E0000160EDB6AD950370F2B6E000EDA202C6ECF
:100E1000390E2BC0DBFF3A0E2CC0DBFF380EDB6A2D
:100E2000080EDB6A0A0EAEDADF50780A12E0200AFA
:100E300010E0280A0CE0200A0AE03F0A06E00D0A4A
:100E400002E0200A08E1020E05D0080E03D0080EC9
:100E5000DF26100E97DA030EDBBE02D0DB92DB94A6
:100E6000DB50800B26E08ADA030EEB50000AE8AE76
:100E700002D0D89008D0000EEE5C000EEE58000EA6
:100E8000EE58000EEE5815E211DA2068216822684B
:100E90002368EDEC24F00A0E17C0DBFF0B0E18C020
:100EA000DBFF0C0E19C0DBFF0D0E1AC0DBFF2D0E91
:100EB00008D0030EDBA202D02B0E03D0DBA408D097
:100EC000200EF36E170EF3CFDBFF150EDB2A02D0D8
:100ED000170EDB6A050EDB5003E1B5D901E189D0BD
:100EE000F80E2B6E4D0E2C6E000E2D6E070EDBCF06
:100EF0002EF02F6A306A316A2EC020F02FC021F008
:100F000030C022F031C023F0D1D91CEC26F02B5098
:100F10001724F36E2C501820F46E2D501920F86E03
:100F2000F4CFF7FFF3CFF6FF0800090EF5CFDBFF94
:100F3000580EDF5C0FE1610EF36E090E79D90AE3FA
:100F4000200E2B6E090EDBCFE7FF2B50E75E090E5C
:100F5000E7CFDBFF070EDBCF2BF02C6A2D6A2E6A62
:100F60000DDA2BC020F02CC021F02DC022F02EC0B5
:100F700023F0EECF1BF0EECF1CF0EECF1DF0EFCF45
:100F80001EF01CEC26F01EC0EDFF1DC0EDFF1CC0C6
:100F9000EDFF1BC0EFFF390EDBCFE9FFDB063A0E9A
:100FA000DBCFEAFF01E2DB06090EDBCFEFFF150E18
:100FB000DB2A49D995E1030EDBA61DD06F0EDF5C5D
:100FC00006E1BFD918E3150EDB2859DA14D0780EE4
:100FD000DF5C09E0580EDF5C06E0620EDF5C03E0D8
:100FE000420EDF5C08E1020EF36E160EF3CFDBFF5C
:100FF00002D0150EDB6A030EDB50100B0EE0040E60
:10100000DBCF2BF0050EDB50D8802B5406E2060E0A
:10101000DB5003E1040EDB5032DA93D90AE2050E0D
:10102000DBCFE7FF150EDB50E75E050EE7CFDBFFFA
:1010300002D0050EDB6A040EDBCF2BF0160E43D96F
:10104000D8802B5414E2160EDBCFE6FF150EDBCF53
:10105000E6FF040EDBCFE6FF050EDB50E552E75C52
:10106000E552D880E754E552D880E7545DD9030EA5
:10107000DB50010B0BE1080EDB5008E0B0D801E0BB
:101080008DD0080EDB50BCD8080EDB6A170EDB5083
:1010900007E086D9170EEFD903E12C1C01E17ED0C1
:1010A000160EDB5016E07CD9300EE66E9DD802E1BC
:1010B0002C1C74E075D9DFCFE6FFABEC24F0E552D1
:1010C000E552E552F4CF2CF00001F31C02E12C1C98
:1010D00065E0050EDBCF2BF0160EDB50D8802B54CD
:1010E00009E2050EDBCFE7FF160EDB50E75E050ECB
:1010F000E7CFDBFF300EE66E050EC9D94FE1390EA2
:10110000DB2ADBCFE9FF3A0E01E3DB2ADBCFEAFF84
:10111000090EEFCFDBFFDB500EE042D9090EABD951
:1011200002E12C1C3BE0390EDB2ADBCFE9FF3A0E53
:10113000EDE3DB2AEBD753D831E1160EDBCFE6FF28
:10114000080EC1D8E552E7245BD82ED0070EDB503D
:10115000030A1CE0010A14E0030A07E079D9DBCF97
:10116000EEFF020EDBCFEDFF1FD0F3D8306A2EAEBC
:1011700002D02F6830682AD8BAD830C0EEFF14D019
:10118000E8D82EBE2F6822D8B2D80ED061D9DBCFD6
:10119000EFFF0AD079D905E12C1C03E1F368F4686C
:1011A00010D0FAD801E3DB2A77D971EF04F0010EF1
:1011B000DBCF2BF0020EDBCF2CF02BC0F3FF2CC0CB
:1011C000F4FFD9CFE1FFDACFE2FFCBD029D9020E6D
:1011D000D7EF09F061D90800F550DF6E1200200E3C
:1011E000E66E080E47EF0AF0ABEC24F0E552E5524C
:1011F000E552F3CF2BF0F4CF2CF00001F31C1200DA
:101200002B6E2C6AD950010F4DD92B50EE262C5045
:10121000ED2212002F5E000E305AF70E2FC0DBFFBA
:10122000F80E30C0DBFF2FC0E9FF30C0EAFF12002C
:10123000DBCFF4FFF350F45C1200DB50E76E040EDA
:10124000E7CFDBFF12000A0EDBCF2BF00B0EDBCF5C
:101250002CF00C0EDBCF2DF00D0EDBCF2EF02B5033
:101260002C102D102E101200130EEECFDBFF140EDB
:10127000EDCFDBFF130EDBCF2BF0140EDBCF2CF00A
:101280000001800E2C141200F70EDBCF2FF0F80EA9
:10129000DBCF30F01200050EDB50E66ED950130F95
:1012A00001D9E552E750EE6EED6A12000A0EDBCF6F
:1012B0001BF00B0EDBCF1CF00C0EDBCF1DF00D0E68
:1012C000DBCF1EF01200DBCFE6FF150EDBCFE6FF13
:1012D000050EDB50E552E724E552E7241200DB500F
:1012E000CED8010EF36E060EF3CFDBFF1200EE50E8
:1012F000EFCFEAFFE96E2DC0EEFF2EC0EEFF2FC04C
:10130000EEFF1200D9CFE6FFDACFE6FFE1CFD9FF3B
:10131000E2CFDAFF1200DFCFE6FFE66AB6EC26F096
:10132000E552E552F3501200E76E080EE7CFDBFFFF
:101330001200EECF2BF0EECF2CF0EFCF2DF02E6A77
:101340001200050EDBCF2BF0150EDB50D8802B548E
:101350001200010EDBCF2DF0020EDBCF2EF02F6A34
:101360001200E552E5CFDAFFE7CFD9FF12000A0EEF
:101370002BC0DBFF0B0E2CC0DBFF1200D9500A0F75
:1013800052EF0AF0F36E070EF3CFDBFF1200EECF41
:101390002BF0EFCF2CF01200010EDB2A020E120010
:1013A000FC0EDBCFE6FFFD0EDBCFE6FF12002B5E6F
:1013B000000E2C5AF70E2BC0DBFFF80E2CC0DBFF03
:1013C0002BC0E9FF2CC0EAFF1200DA20EA6EEF2AF8
:1013D000EECFF6FF000EEF22EECFF7FFEF22EECFBB
:1013E000F8FF1200040EDBCFE6FF130EDB50E552D0
:1013F000E75C9ADFDB5004DF060EDB501200090EBB
:10140000DB500A0DF350DF24D00FE76E090EE7CF53
:10141000DBFFEAEF08F0DB50F36E050E18EF09F082
:10142000F70EDBCF2BF0F80EDBCF2CF01200DFCF66
:10143000E6FFF4EF08F028DF030EECDE99EF09F089
:1014400046EC04F0E552E552E552E552000912007F
:10145000BDDEEE50EFCFEAFFE96E010E1200130E73
:10146000DB50F36E040E18EF09F0040EDB50F36E40
:10147000090E18EF09F0DBCFE6FFF4EF08F0E76E96
:10148000050EE7CFDBFF12008BDF17EF0AF0DBCF93
:10149000E6FF86DF20EF0AF0D950F90FE96EFF0E64
:0E14A000E5EF09F0E96E000EDA20EA6E1200A8
:0214AE00E50E49
:1014B000E66E40EC26F0E552F60ECF6E3B0ECE6E99
:1014C0009F90120068DB0C0EE126F2AC04D0F29C77
:1014D00024DBF28C01D021DBDECF2BF0DDCF2CF032
:1014E0003B0E2B5EF60E2C5A0A0E2BC0DBFF0B0EAA
:1014F0002CC0DBFF020EDBCF2BF0030EDBCF2CF07A
:10150000040EDBCF2DF0050EDBCF2EF049DBEDEC2A
:1015100024F017C02BF018C02CF019C02DF01AC001
:101520002EF0020E1D6E1E6A0A0EDBCF22F00B0E8D
:10153000DBCF23F016EC24F01BC02FF01CC030F0E2
:10154000050E226E236A1BC01DF01CC01EF0A0EC0D
:1015500026F0316A326A1D502B261E502C22315043
:101560002D2232502E22060E2BC0DBFF070E2CC080
:10157000DBFF080E2DC0DBFF090E2EC0DBFF060EC1
:10158000DBCF2BF0070EDBCF2CF0080EDBCF2DF0DE
:10159000090EDBCF2EF019DBD9CFE1FFF8D29FDAAD
:1015A000DBDAD9CFE1FFF3D20ADBEECF2BF0EECFBF
:1015B0002CF0EECF2DF0EFCF2EF0A2D200DB070102
:1015C000B651EE5C2B6EB751EE582C6EB851EE58FA
:1015D0002D6EB951EE582E6E93D2D9CFE6FFD7D2E9
:1015E000DADA0701E251E3111CE1FB0EDBCF4FF227
:1015F000FC0EDBCF50F2FD0EDBCF51F2FE0EDBCF47
:1016000052F24FC24BF250C24CF251C24DF252C292
:101610004EF2F29CF90EDBCFE2F7FA0EDBCFE3F7E6
:101620007BD0E451E5111CE1FB0EDBCF57F2FC0E41
:10163000DBCF58F2FD0EDBCF59F2FE0EDBCF5AF2B4
:1016400057C253F258C254F259C255F25AC256F216
:10165000F29CF90EDBCFE4F7FA0EDBCFE5F75CD0B6
:10166000E651E7111CE1FB0EDBCF5FF2FC0EDBCF96
:1016700060F2FD0EDBCF61F2FE0EDBCF62F25FC2E5
:101680005BF260C25CF261C25DF262C25EF2F29C29
:10169000F90EDBCFE6F7FA0EDBCFE7F73DD0E851E6
:1016A000E9111CE1FB0EDBCF67F2FC0EDBCF68F229
:1016B000FD0EDBCF69F2FE0EDBCF6AF267C263F28A
:1016C00068C264F269C265F26AC266F2F29CF90EFF
:1016D000DBCFE8F7FA0EDBCFE9F71ED0EA51EB11CA
:1016E0001CE1FB0EDBCF6FF2FC0EDBCF70F2FD0EC8
:1016F000DBCF71F2FE0EDBCF72F26FC26BF270C203
:101700006CF271C26DF272C26EF2F29CF90EDBCF16
:10171000EAF7FA0EDBCFEBF7F28C39D23CDAE2C70C
:101720002BF0E3C72CF02BDA07E12DDA05E1F29C70
:101730000701E26BE36B33D0E4C72BF0E5C72CF075
:101740001EDA07E120DA05E1F29C0701E46BE56BA4
:1017500026D0E6C72BF0E7C72CF011DA07E113DA41
:1017600005E1F29C0701E66BE76B19D0E8C72BF0A7
:10177000E9C72CF004DA07E106DA05E1F29C07017B
:10178000E86BE96B0CD0EAC72BF0EBC72CF0F7D96C
:1017900007E1F9D905E1F29C0701EA6BEB6BF28CEA
:1017A000F6D1F29EF60ECF6E3B0ECE6EF28E070194
:1017B000B22B000EB323B423B5230701BE510EE0B4
:1017C0000701BA07000EBB5BBC5BBD5B0701BA51EA
:1017D000BB11BC11BD1102E10701BE6B0701DC5159
:1017E00006E00701C32B000EC423C523C62307014F
:1017F000DD5106E00701C72B000EC823C923CA2309
:101800000701DE5106E00701CB2B000ECC23CD23D0
:10181000CE230701DF5106E00701CF2B000ED023B6
:10182000D123D2230701E05106E00701D32B000E9C
:10183000D423D523D6230701E15106E00701D72B96
:10184000000ED823D923DA230701E251E3111BE06C
:1018500002014B07000E4C5B4D5B4E5B02014B518E
:101860004C114D114E110FE105D0E3C7FAFF0701EE
:10187000E251F96EFADF4FC24BF250C24CF251C244
:101880004DF252C24EF20701E451E5111BE0020194
:101890005307000E545B555B565B020153515411C4
:1018A000551156110FE105D0E5C7FAFF0701E451C4
:1018B000F96EFADF57C253F258C254F259C255F2C8
:1018C0005AC256F20701E651E7111BE002015B071D
:1018D000000E5C5B5D5B5E5B02015B515C115D1148
:1018E0005E110FE105D0E7C7FAFF0701E651F96E77
:1018F000FADF5FC25BF260C25CF261C25DF262C29B
:101900005EF20701E851E9111BE002016307000ED6
:10191000645B655B665B020163516411651166116E
:101920000FE105D0E9C7FAFF0701E851F96EFADFC8
:1019300067C263F268C264F269C265F26AC266F2A3
:101940000701EA51EB111BE002016B07000E6C5B13
:101950006D5B6E5B02016B516C116D116E110FE1CD
:1019600005D0EBC7FAFF0701EA51F96EFADF6FC243
:101970006BF270C26CF271C26DF272C26EF207014C
:10198000ED2B0701ED510A0809E201010101FE51A9
:10199000010B04E010EC1DF00701ED6B83EC14F07B
:1019A000080E0101F0150701EC5D09E00701EC519B
:1019B00001E000D0080E0101F0150701EC6F0201F3
:1019C000875123E0800E0101F0151FE168EC1CF047
:1019D0000201895D1AE00701B651B711B811B911BA
:1019E00014E0FF0E0201895D05E168EC1CF00201C4
:1019F000896F0BD068EC1CF00201896F16EE00F0C5
:101A000026EE00F0010EFC6E10001200C4D8FB0E92
:101A1000DBCF2BF0FC0EDBCF2CF0FD0EDBCF2DF05F
:101A2000FE0EDBCF2EF02B502C102D102E1011E0BF
:101A3000FB0EDBCFBAF7FC0EDBCFBBF7FD0EDBCF27
:101A4000BCF7FE0EDBCFBDF70701010EBE6FBE5126
:101A5000FEE19DD0A0D8FE0EDB5004E0FE0EDB5070
:101A6000060804E2FE0EDB50000E01D0010E8FD0FE
:101A700051D803E07CD8010EEF6E89D04BD802E03C
:101A800076D8EF6A84D046D80EE059D8FA0EDBCF6C
:101A9000EEFFFB0EDBCFEEFFFC0EDBCFEEFFFD0E0D
:101AA000DBCFEEFFF28C73D076D8040EE12680D81F
:101AB00005E11B6A1C6A1D6A1E6A0ED040D8EECF73
:101AC000DFFF010EEECFDBFF020EEECFDBFF030EDA
:101AD000EECFDBFFF28C40D8D9CFE1FF58D05BD8F6
:101AE000040EE126F29CB2C7DFFF010EB3C7DBFF95
:101AF000020EB4C7DBFF030EB5C7DBFFF28C12008A
:101B00004FD81CEC26F01BC0F3FF1CC0F4FFD9CF4C
:101B1000E1FF3DD040D8D8EF0DF0CE50DF6E010E82
:101B2000CFCFDBFF020EB2C7DBFF030EB3C7DBFF75
:101B3000040EB4C7DBFF050EB5C7DBFF1200F29C35
:101B4000FE0EDB50040DF3CFE9FFF4CFEAFFBF0E2A
:101B5000E926070EEA221200DECF1BF0DECF1CF0D2
:101B6000DECF1DF0DDCF1EF0DD52DD521200FE0E85
:101B7000DB50EA6ADB0FE96E070EEA221200FD0E67
:101B8000DB502B181200FE0EDB502C181200E55211
:101B9000E7CFD9FF1200D9CFE6FFE1CFD9FF12007E
:101BA000E80E206E030E216E226A236AE5EF0DF027
:101BB000FE0EDBCFE6FF4EDFE552000912008FDF9D
:101BC000D9CFE9FFDACFEAFF12002BC01BF02CC0FF
:0C1BD0001CF02DC01DF02EC01EF01200F5
:041BDC00DACFE4FF79
:101BE000E2CFDAFFE9CFE4FFEACFE4FFE652F2A268
:101BF00002D09CD802D09EB6C8D8E552E5CFEAFF05
:101C0000E5CFE9FFE5CFDAFF1100E66A010EE66EE7
:101C1000050EE66E25EC25F0E552E552E552120080
:101C2000070EB46E000E886E876E866E856E846EAB
:101C3000836E826E816E806E916E906E8F6E8E6EF0
:101C40008D6E8C6E8B6E8A6E896E92689368BF0EF5
:101C5000946E956A700E966E9F0E976EE40E986E57
:101C60000F0E996E9A68C16E070EC06EF19EB09805
:101C70009C8EA26A9F6AA06A9D6AA36AA56AC5DF54
:101C80009F86D08E9E969D869382F06AF288F09E03
:101C9000F098F192F09AF16AF28CF28E1200D9CF9C
:101CA000E6FFE1CFD9FFE652BBDF0101FE97FE99C7
:101CB0000201C20E9F6F010EA06FDF6A100EDF5C83
:101CC0000AE2DF50EA6A9F25E96EA051EA227F0E00
:101CD000EF6EDF2AF3D70101DB6B010EDC6FC90E5B
:101CE000DD6F0101FE85010ED56E800ED76EF90EF7
:101CF000D66ED59EBE0EE66E010EE66E94D8E55207
:101D0000E5520101FE93BE0EE66E010EE66E8BD823
:101D1000E552E5520101FE93E552E552E7CFD9FFC6
:101D2000120082828088949292981200F2920201AC
:101D3000200E9B6F9F860101FEA906D00201E00ED6
:101D4000986F000E996F05D00201C00E986F000EBB
:101D5000996F0101FEA1FE79FEA706D00201800E57
:101D6000966F000E976F05D00201A00E966F000EC1
:101D7000976FC9CF9CF296C2E9FF97C2EAFF962BF4
:101D8000000E9723EF50C96E12009E96C9CF9CF2A9
:101D900002019B51000823E298C2E9FF99C2EAFFC1
:101DA000982B000E99239CC2EFFF96C2E9FF97C2C1
:101DB000EAFF962B9723EFCF9CF29CC2C9FF9B07AB
:101DC0009B510CE10101020EDC6F0101FE93FE81CB
:101DD000770ED76E470ED66EF294D58E01D0C96AB3
:101DE0001200D9CFE6FFE1CFD9FF0101FEA117D044
:101DF000FD0EDBCFE6FFFE0EDBCFE6FF3DEC1BF07A
:101E0000E552E5529D960101FE919D860F0E00015F
:101E1000165D05E0D4C1E6FF87EC1AF0E552E55205
:101E2000E7CFD9FF1200D9CFE6FFE1CFD9FF0101FB
:101E3000FEB332D0FD0EDBCFE9FFFE0EDBCFEAFFB3
:101E40001E0EE926000EEA22EF50020809E1FD0EFF
:101E5000DBCFE6FFFE0EDBCFE6FF69D8E552E552A9
:101E6000FD0EDBCFE9FFFE0EDBCFEAFF150EE92604
:101E7000000EEA22EF9EFD0EDBCFE6FFFE0EDBCF6B
:101E8000E6FFABEC1AF0E552E5529D960101FE77B4
:101E9000FE839D860101DB2BE552E7CFD9FF1200BF
:101EA0009D960101FE919D861200D9CFE6FFE1CFFC
:101EB000D9FF0001166BD950FD0FE96EFF0EDA2035
:101EC000EA6E010EEE1801E1ED5002E1168101D03B
:101ED000BA6AD950FB0FE96EFF0EDA20EA6E010EE6
:101EE000EE1801E1ED5002E1168301D0B76AD95036
:101EF000F90FE96EFF0EDA20EA6E010EEE1801E12D
:101F0000ED5002E1168501D0736AD950F70FE96EE2
:101F1000FF0EDA20EA6E010EEE1801E1ED5002E14B
:101F2000168701D0706AE552E7CFD9FF1200D9CFEA
:101F3000E6FFE1CFD9FFFD0EDBCFE9FFFE0EDBCFE1
:101F4000EAFF1C0EE926000EEA22EF6AFD0EDBCF47
:101F5000E9FFFE0EDBCFEAFF170EE926000EEA22AC
:101F6000EF6AC6AE0ED0C69EFD0EDBCFE9FFFE0EB9
:101F7000DBCFEAFF170EE926000EEA22010EEF6E14
:101F800022D0F150800B10E0F250080B0DE0FD0E56
:101F9000DBCFE9FFFE0EDBCFEAFF170EE926000ECE
:101FA000EA22020EEF6E0FD0F0A60DD0909EFD0E2D
:101FB000DBCFE9FFFE0EDBCFEAFF170EE926000EAE
:101FC000EA22030EEF6E250EC614250819E0FD0E59
:101FD000DBCFE9FFFE0EDBCFEAFF1C0EE926000E89
:101FE000EA22010EEF6EFD0EDBCFE9FFFE0EDBCF26
:101FF000EAFF170EE926000EEA22C6CFEFFF80D1D6
:10200000C55019E0FD0EDBCFE9FFFE0EDBCFEAFF86
:102010001C0EE926000EEA22020EEF6EFD0EDBCF4B
:10202000E9FFFE0EDBCFEAFF170EE926000EEA22DB
:10203000C5CFEFFF65D1D0BE19D0FD0EDBCFE9FFD4
:10204000FE0EDBCFEAFF1C0EE926000EEA22030E8D
:10205000EF6EFD0EDBCFE9FFFE0EDBCFEAFF170EC2
:10206000E926000EEA22D0CFEFFF4AD19DB619D063
:10207000FD0EDBCFE9FFFE0EDBCFEAFF1C0EE926EB
:10208000000EEA22040EEF6EFD0EDBCFE9FFFE0E1E
:10209000DBCFEAFF170EE926000EEA229DCFEFFF05
:1020A0002FD19C5019E0FD0EDBCFE9FFFE0EDBCFF8
:1020B000EAFF1C0EE926000EEA22050EEF6EFD0E69
:1020C000DBCFE9FFFE0EDBCFEAFF170EE926000E9D
:1020D000EA229CCFEFFF14D1080E9F5C19E0FD0EA1
:1020E000DBCFE9FFFE0EDBCFEAFF1C0EE926000E78
:1020F000EA22060EEF6EFD0EDBCFE9FFFE0EDBCF10
:10210000EAFF170EE926000EEA229FCFEFFFF8D074
:10211000A25019E0FD0EDBCFE9FFFE0EDBCFEAFF98
:102120001C0EE926000EEA22070EEF6EFD0EDBCF35
:10213000E9FFFE0EDBCFEAFF170EE926000EEA22CA
:10214000A2CFEFFFDDD0A55019E0FD0EDBCFE9FFF8
:10215000FE0EDBCFEAFF1C0EE926000EEA22080E77
:10216000EF6EFD0EDBCFE9FFFE0EDBCFEAFF170EB1
:10217000E926000EEA22A5CFEFFFC2D0100EF2141E
:10218000100819E0FD0EDBCFE9FFFE0EDBCFEAFF02
:102190001C0EE926000EEA22090EEF6EFD0EDBCFC3
:1021A000E9FFFE0EDBCFEAFF170EE926000EEA225A
:1021B000F2CFEFFFA5D0470EF11419E0FD0EDBCFF3
:1021C000E9FFFE0EDBCFEAFF1C0EE926000EEA2235
:1021D0000A0EEF6EFD0EDBCFE9FFFE0EDBCFEAFF4E
:1021E000170EE926000EEA22F1CFEFFF89D0C00ECC
:1021F000F01419E0FD0EDBCFE9FFFE0EDBCFEAFFA6
:102200001C0EE926000EEA220B0EEF6EFD0EDBCF50
:10221000E9FFFE0EDBCFEAFF170EE926000EEA22E9
:10222000F0CFEFFF6DD092A819D0FD0EDBCFE9FF04
:10223000FE0EDBCFEAFF1C0EE926000EEA220C0E92
:10224000EF6EFD0EDBCFE9FFFE0EDBCFEAFF170ED0
:10225000E926000EEA2292CFEFFF52D093B019D0B8
:10226000FD0EDBCFE9FFFE0EDBCFEAFF1C0EE926F9
:10227000000EEA220D0EEF6EFD0EDBCFE9FFFE0E23
:10228000DBCFEAFF170EE926000EEA2293CFEFFF1D
:1022900037D03E0E94141C0819E0FD0EDBCFE9FF89
:1022A000FE0EDBCFEAFF1C0EE926000EEA220E0E20
:1022B000EF6EFD0EDBCFE9FFFE0EDBCFEAFF170E60
:1022C000E926000EEA2294CFEFFF1AD097BE18D06D
:1022D000FD0EDBCFE9FFFE0EDBCFEAFF1C0EE92689
:1022E000000EEA220F0EEF6EFD0EDBCFE9FFFE0EB1
:1022F000DBCFEAFF170EE926000EEA2297CFEFFFA9
:08230000E552E7CFD9FF1200FE
:0823080031DAFD0EDB0403E0F5
:10231000FD0EDB504CE1FE0EDB50100A44E01F0ABC
:1023200040E0010A3CE0030A38E0010A31E0070A14
:102330002DE0010A29E0030A24E0010A20E00F0A47
:102340001CE0010A18E0030A11E0010A0CE0070A88
:1023500008E0010A04E0030A2AE128DA08D023DAB7
:1023600006D00DDA04D0F9D9F70E01D02ADA92148A
:10237000F310926E1CD01ADA0CD015DA0AD0FFD9FD
:1023800008D0EBD9F70E05D02EDA03D01ADA01D037
:102390002EDA9714F310976E0AD025DA05D011DAE9
:1023A00003D025DA01D026DA9914F310996EE3D11F
:1023B000DDD9C9EC23F0FE0EDB50100A3CE01E0A0A
:1023C00038E0030A34E0010A30E0070A2CE0010A91
:1023D00028E0030A24E0010A20E00F0A1CE0010AB9
:1023E00018E0030A14E0010A10E0070A0CE0010AF1
:1023F00008E0030A04E0010A22E1E6681ED0FE0EAE
:102400001BD0FD0E19D0FC0E17D0FB0E15D0FA0E06
:1024100013D0F90E11D0F80E0FD0F70E0DD0F60E26
:102420000BD0F50E09D0F40E07D0F30E05D0F20E46
:1024300003D0F10E01D0F00EE66E1FD9E552FD0E6D
:10244000DBCFE6FF010E8DD9FC0EDBCFE6FF020EDF
:1024500088D9FB0EDBCFE6FF030E83D9FA0EDBCF64
:10246000E6FF040E7ED9F90EDBCFE6FF050E79D923
:10247000F80EDBCFE6FF060E74D9F70EDBCFE6FFD2
:10248000070E6FD9F60EDBCFE6FF080E6AD9F50E00
:10249000DBCFE6FF090E65D9F40EDBCFE6FF0A0EAF
:1024A00060D9F30EDBCFE6FF0B0E5BD9F20EDBCF6C
:1024B000E6FF0C0E56D9F10EDBCFE6FF0D0E51D91B
:1024C000F00EDBCFE6FF0E0E4CD9EF0EDBCFE6FFB2
:1024D0000F0E47D9EE0EDBCFE6FF100E42D94BD1DF
:1024E00045D9FE0EDB50100A44E01F0A40E0010A05
:1024F0003CE0030A38E0010A31E0070A2DE0010A56
:1025000029E0030A24E0010A20E00F0A1CE0010A86
:1025100018E0030A11E0010A0CE0070A08E0010ACA
:1025200004E0030A2BE142D908D03DD906D027D9CF
:1025300004D013D9F70E01D044D98914F310896E51
:102540001FD034D90CD02FD90AD019D908D005D929
:10255000F70E05D048D903D034D901D048D98E140C
:10256000F3108E6E0DD03FD905D02BD903D03FD9B3
:1025700001D040D99014F310906E02D0FE0EDB50C3
:10258000FAD0F4D8FE0EDB50100A57E01F0A51E0D3
:10259000010A4BE0030A45E0010A3FE0070A39E07F
:1025A000010A33E0030A2DE0010A27E00F0A21E0C7
:1025B000010A1CE0030A16E0010A10E0070A0AE01B
:1025C000010A04E0030A3EE1805011D08050020B62
:1025D0003AE036D08050040B36E032D08050080B01
:1025E00032E02ED08050200B2EE02AD08550010BF7
:1025F0002AD08550020B27E023D08550040B23E01E
:102600001FD08550080B1FE01BD08550100B1BE01E
:1026100017D08550200B17E013D08550400B13E0E6
:102620000FD08750100B0FE00BD08750200B0BE022
:1026300007D08750400B07E003D08750800B03E0A2
:10264000010E01D0000E97D091D8E66AFE0EDBCFC6
:10265000E6FF5ADEE552E552FD0EDBCFE6FFFE0E49
:10266000DBCFE6FF3DDFE552E55285D07FD8E66A55
:10267000ADD07CD8010EE66EA9D078D8FE0EDBCFA7
:10268000C2F279D073D8020EE126F29CFE0EDB5026
:102690007F0B79D807EC04F00009FCE181EC26F00F
:1026A00019EC27F0C4502D6E2E6E2D6AC350000118
:1026B0002D102B6E2EC02CF0DE6E2EC0DDFFF28CA6
:1026C000DECF2BF0DDCF2CF02BC0F3FF2CC0F4FFBE
:1026D000D9CFE1FF50D04AD8030EE126010EF36EA8
:1026E000FE0EDBCFF4FFF350F45C04E3FE0EDB5090
:1026F000100803E2F36AF46A2DD0FE0EDB50F76A8D
:10270000090FF66E4E0EF7220800F550DF6EF29CB0
:102710007F0EDF1438D807EC04F00009FCE181ECEF
:1027200026F019EC27F0C4502E6E2D6AC3502D10E0
:102730002B6E010E2BC0DBFF020E2EC0DBFFF28CD6
:10274000010EDBCF2BF0020EDBCF2CF02BC0F3FF02
:102750002CC0F4FFD9CFE1FF0ED03FD8F346F346AB
:102760001200E66ED1DDE552E5521200D9CFE6FF48
:10277000E1CFD9FF1200E552E7CFD9FF12002DD8E3
:10278000F346FB0E1200FE0BFD0BE66EC2C2E6FF27
:10279000BCEC25F0E552E5520A0EE66EE6EC26F0BA
:1027A000E5521CEF27F019D8FD0E1200FD0EDB508C
:1027B000010BF36EFE0E1200F346F346F346BF0E16
:1027C0001200CBDFF346F346DF0E1200FE0EDBCF26
:1027D000E6FF3ADFE552E552CED7FD0EDB50010BA6
:1027E000F36EF3461200B9DFF346EF0E1200B5DFC9
:1027F000DCEF13F0B2DFF346F346F346F3467F0E09
:022800001200C4
:0E2802001FDA1A0EE126D9CF2BF0DACF2CF018
:102810003CDA0201AA0E306F550E316F1E0E326F78
:10282000120E336F346BFE0EDB5005E0FE0EDB0440
:1028300002E0000E65D0FE0EDB5001E0348107019E
:10284000F25102013413050EF36E190EF3CFDBFFC4
:10285000150EE8D906E2EDD9200EEF6E190EDB2A2F
:10286000F7D7190EDB6A100EDDD913E2CDD90F01AF
:10287000F8D9EF50E66E190EDB50050FEA6A300FFB
:10288000E96E020EEA22E552E750EF6E190EDB2ADE
:10289000EAD70201466B040EF36E190EF3CFDBFF8D
:1028A000150EC0D906E2C5D9EF504627190EDB2A0E
:1028B000F7D7461D010F466FE8CF45F2190EDB6AC8
:1028C000160EB0D909E2B5D9EF50E66E51EC20F002
:1028D000E552190EDB2AF4D7F1C72BF02C6A2D6ACA
:1028E0002E6AF1C7E6FF2CC0E6FF2DC0E6FF2EC022
:1028F000E6FF06EC0DF0E552E552E552E552010E19
:10290000D9CFE1FFA3D1080E0701EE5D03E1F29CF0
:10291000EE6BF28C120095D9E6520701EE51080ACF
:1029200057E00C0A2EE0070A23E0010A11E0030A2F
:1029300008E0010A4CE1FE0EDB50AA0849E1010E55
:102940003FD0EE6BFE0EDB50550842E1020E38D050
:102950000201486B48C2F0F748C247F2FE0EDBCFD7
:10296000EFF70701EE6B160EEF5D32E1030E28D094
:10297000FE0EDBCFF0F7EE6B020EF05D29E1040EE8
:102980001FD002014751472BEA6A020FE96E020E7F
:10299000EA22FE0EDBCFEFFF0701F007F05112E154
:1029A000FE0EDB5002014827485112E102C20EF22E
:1029B0000EB10F810EB30F830EB50F850701080E00
:1029C000EE6F06D0FE0EDB500201482701D0EE6B01
:1029D000E5523CD152D90701EE6B02010E6B0F6B31
:1029E000160EE66E290EE66E7EEC20F0E552E552FC
:1029F00012003DEF16F025D9E66A03DFE552F29C9E
:102A0000D950FD0F27D90DE0010E02010F1502E08C
:102A1000010E01D0000EE66EFD0EDBCFE9FFFE0ECB
:102A200026D9D950FB0F16D90DE0020E02010F1561
:102A300002E0010E01D0000EE66EFB0EDBCFE9FFD7
:102A4000FC0E15D9D950F90F05D90DE0040E02017D
:102A50000F1502E0010E01D0000EE66EF90EDBCF7D
:102A6000E9FFFA0E04D90701EE6B02010F6BF28C3D
:102A7000EDD0E7D8020EE126800EE66EFC0EE66E83
:102A800058EC25F0E552E552A59AA59898929884BD
:102A90006E50DF6E6E50DF6EA49A0701F26B010E6E
:102AA000DB6A100EF36E010EDBCFF4FFF350F45C23
:102AB00015E2010EDB50EA6A100FE96E020EEA22FF
:102AC000200EEF6E010EDB50EA6A200FE96E020E57
:102AD000EA22200EEF6E010EDB2AE3D7D9CFE1FF09
:102AE000B5D0AFD81D0EE126D0D8D950FC0F2B6E33
:102AF000FF0EDA202C6E1B0E2BC0DBFF1C0E2CC031
:102B0000DBFF1B0EDBCFE6FF1C0EDBCFE6FFFC0E70
:102B1000DBCF2BF0FD0EDBCF2CF02D6A2BC0E6FFB8
:102B20002CC0E6FF2DC0E6FFD950170FE66E000E51
:102B3000DA20E66E5CEC04F0F56E070EE15EF5500F
:102B40001A0EF3CFDBFF170EDBCFE9FF180EDBCF3A
:102B5000EAFFEF6A1A0EDB50100805E2100EF36E62
:102B60001A0EF3CFDBFFFE0EDB5005E0FE0EDB049A
:102B700002E0000E2FD0190EDB6A100E53D808E2C7
:102B800043D80F016ED8200EEF6E190EDB2AF5D751
:102B9000190EDB6A1A0EDB5045D816E2D9CF2DF09C
:102BA000DACF2EF0190EDB500F01D924E96E000E9A
:102BB000DA20EA6EEF50E66E27D853D8E552E75098
:102BC000EF6E190EDB2AE6D7FE0EDBCFE6FF19DE2D
:102BD000E552010ED9CFE1FF39D033D8FE0EDB50DC
:102BE00005E0FE0EDB0402E0000E0DD0FE0EDB5011
:102BF00004E00701020EF26F02D00701F26BE66AF1
:102C000000DEE552010E22D0FE0EDB50100DF3CF98
:102C10002BF0F4CF2CF0100E2B26020E2C22190EC6
:102C2000DB501200F36E190EDBCFF4FFF350F45CAF
:102C30001200190EDB50EA6A300FE96E020EEA222A
:102C40001200D9CFE6FFE1CFD9FF1200E552E7CF5E
:102C5000D9FF1200E96EFF0EDA20EA6EEE50ED1099
:102C600012002B24E96E000E2C20EA6E1200DBCF3E
:102C7000EAFFE552E750EF6E1200000EE66EE66ADC
:102C80007EEC20F0E552E5521200170ED9CFDBFFA3
:082C9000180EDACFDBFF120081
:082C9800D9CFE6FFE1CFD9FF1F
:102CA000020EE12616EE00F026EE00F0F86A269CF1
:102CB000A68EA69C5FEC1AF07AEC23F0D1EC1CF007
:102CC0000701B66BB76BB86BB96B0201C55101E177
:102CD000FCD70101FD51E66EE66A4D0E2B6E3F0EEC
:102CE0002C6E2D6A2BC0E6FF2CC0E6FF2DC0E6FF40
:102CF00061EC24F0F56E050EE15EF550020187519E
:102D000014E10201885111E10101040ED26F640E39
:102D1000E66EE66AE66AE66A06EC0DF0E552E55212
:102D2000E552E55208EC23F0ADD1FF0E0201875DBC
:102D300001E0B8D0080E0101FD5D22E20101FD5164
:102D4000E66EE66A140E2B6E3F0E2C6E2D6A2BC0BB
:102D5000E6FF2CC0E6FF2DC0E6FF61EC24F0F56E27
:102D6000050EE15EF550E80EE66E030EE66EE66ACD
:102D7000E66A06EC0DF0E552E552E552E552DED783
:102D80000101F0510CE1640EE66EE66AE66AE66A5D
:102D900006EC0DF0E552E552E552E552F1D7F80E9A
:102DA0002B6E3E0E2C6E2D6A2BC0E6FF2CC0E6FF6C
:102DB0002DC0E6FF61EC24F0E552E552E552640EC9
:102DC000E66EE66AE66AE66A06EC0DF0E552E55262
:102DD000E552E55203EC04F084EC1CF0000901E13B
:102DE000FBD7CFEC0AF01BC0B6F71CC0B7F71DC06D
:102DF000B8F71EC0B9F768EC1CF000092DE0640EAE
:102E0000E66EE66AE66AE66A06EC0DF0E552E55221
:102E1000E552E5520101020ED26F5DEC1CF068EC48
:102E20001CF0000901E0FBD701017F0EC26F010118
:102E30007F0EC36F01017F0EC46F01017F0EC56F4E
:102E400001017F0EC66F01017F0EC76F01017F0E6A
:102E5000C86F01017F0EC96F0101D26BE66AE66A95
:102E6000E66AE66A0DEC27F0E552E552E552E552D6
:102E700001017F0EC26F01017F0EC36F01017F0E42
:102E8000C46F01017F0EC56F01017F0EC66F010186
:102E90007F0EC76F01017F0EC86F01017F0EC96FE2
:102EA000AAD7F0D0640EE66EE66AE66AE66A06EC39
:102EB0000DF0E552E552E552E55203EC04F0010154
:102EC000E05101E1FCD7CFEC0AF01BC0B6F71CC003
:102ED000B7F71DC0B8F71EC0B9F70101F05121E0E6
:102EE0000101FD5107081DE2A40E2B6E3E0E2C6E53
:102EF0002D6A2BC0E6FF2CC0E6FF2DC0E6FF61EC7B
:102F000024F0E552E552E552E80EE66E030EE66E59
:102F1000E66AE66A06EC0DF0E552E552E552E55246
:102F2000E3D702018851E66EE66A02018751E66E38
:102F3000E66A550E2B6E3E0E2C6E2D6A2BC0E6FFF8
:102F40002CC0E6FF2DC0E6FF61EC24F0F56E070E05
:102F5000E15EF5500201875142E068EC1CF0000987
:102F60003EE0640EE66EE66AE66AE66A06EC0DF09E
:102F7000E552E552E552E5520101020ED26F87C2D9
:102F80002BF02C6A2D6A2E6A2BC0E6FF2CC0E6FFC0
:102F90002DC0E6FF2EC0E6FF13EC27F0E552E55208
:102FA000E552E55268EC1CF0000901E0FBD7010195
:102FB0007F0EC26F01017F0EC36F01017F0EC46FD0
:102FC00001017F0EC56F01017F0EC66F01017F0EEB
:102FD000C76F01017F0EC86F01017F0EC96F02012B
:102FE000885150E00701B66BB76BB86BB96B020143
:102FF000896988C287F2CFEC0AF01BC0B6F71CC003
:10300000B7F71DC0B8F71EC0B9F7640EE66EE66AE2
:10301000E66AE66A06EC0DF0E552E552E552E55245
:103020000101D26B88C22BF02C6A2D6A2E6A2BC04C
:10303000E6FF2CC0E6FF2DC0E6FF2EC0E6FF0DEC3C
:1030400027F0E552E552E552E55268EC1CF0000924
:1030500001E0FBD701017F0EC26F01017F0EC36F3C
:1030600001017F0EC46F01017F0EC56F01017F0E4C
:10307000C66F01017F0EC76F01017F0EC86F01018E
:103080007F0EC96FE80EE66E030EE66EE66AE66A2C
:1030900006EC0DF0E552E552E552E552F3D70AD6BB
:0C30A000D9CFE1FFE552E7CFD9FF1200C5
:0430AC00D8CFE4FF96
:1030B000E0CFE4FFE46EDACFE4FFE2CFDAFFE9CF5E
:1030C000E4FFEACFE4FFF3CFE4FFF4CFE4FF00EE48
:1030D00017F0140EE80403E3EECFE4FFFBD700EE95
:1030E0002BF00B0EE80403E3EECFE4FFFBD7E65230
:1030F000E1D9030EE126A450200B05E0A350200BDC
:1031000002E08CEC20F09EA003D09E90D1EC0BF05E
:103110009E50200B05E09D50200B02E066EC20F055
:103120009E50100B05E09D50100B02E0BAEC20F011
:10313000A450100B05E0A350100B02E0CCEC20F0E3
:10314000F050020B15E0F050100B12E00201A351F9
:10315000A4110DE0B2C2E6FF010EE66E05D0A4C2D6
:10316000FAFF0201A351F96EFADFE552E552F0923F
:10317000F050040B15E0F050200B12E00201A551B5
:10318000A6110DE0B3C2E6FF020EE66E05D0A6C2A0
:10319000FAFF0201A551F96EFADFE552E552F0940B
:1031A000F250010B01E18AD0F250080B01E186D008
:1031B0008150DF6EF290DF500201AF19E76E010E11
:1031C000E7CFDBFFDFCFAFF2DBA81BD0A751A81101
:1031D00018E0100EDF1402E0010E01D0000E49D9F4
:1031E0000201B45D0EE1020EDBCFE6FF030EE66ED8
:1031F00005D0A8C2FAFF0201A751F96EFADFE55225
:10320000E552010EDBAA1CD00201A951AA1118E057
:10321000200EDF1402E0010E01D0000E2AD90201B7
:10322000B55D0EE1020EDBCFE6FF040EE66E05D0C3
:10323000AAC2FAFF0201A951F96EFADFE552E5527E
:10324000010EDBAC1CD00201AB51AC1118E0400EFA
:10325000DF1402E0010E01D0000E0BD90201B65DB1
:103260000EE1020EDBCFE6FF050EE66E05D0ACC226
:10327000FAFF0201AB51F96EFADFE552E552010E99
:10328000DBAE1CD00201AD51AE1118E0800EDF1490
:1032900002E0010E01D0000EECD80201B75D0EE194
:1032A000020EDBCFE6FF060EE66E05D0AEC2FAFFD9
:1032B0000201AD51F96EFADFE552E552D9CFE1FFD7
:1032C000E552E7CFD9FFE55200EE35F00B0EE804EA
:1032D00003E3E5CFEDFFFBD700EE2AF0140EE80480
:1032E00003E3E5CFEDFFFBD7E5CFF4FFE5CFF3FF39
:1032F000E5CFEAFFE5CFE9FFE5CFDAFFE550E5CF1F
:10330000E0FFE5CFD8FF1000F09EF192F19081CF61
:10331000AFF2F290F2861200B2D841E0030A34E034
:10332000010A27E0070A1AE0010A0DE0030A42E158
:10333000FB0EDBCFA3F2FC0EDBCFA4F2938491D87B
:10334000A4D8F08839D0FB0EDBCFA5F2FC0EDBCF82
:10335000A6F2938686D8A2D8F08A2ED0FD0EDBCFB7
:10336000B4F2FB0EDBCFA7F2FC0EDBCFA8F2938802
:1033700023D0FD0EDBCFB5F2FB0EDBCFA9F2FC0EA6
:10338000DBCFAAF2938A18D0FD0EDBCFB6F2FB0E8C
:10339000DBCFABF2FC0EDBCFACF2938C0DD0FD0E8D
:1033A000DBCFB7F2FB0EDBCFADF2FC0EDBCFAEF224
:1033B000938E02D0FE0EDB50F28C78D07BD8FE0EBE
:1033C000DB50060A1CE0030A16E0010A10E0070AB7
:1033D0000AE0010A05E0030A15E143D856D812D0E5
:1033E00040D85CD80FD0FD0EDBCFB4F20BD0FD0E71
:1033F000DBCFB5F207D0FD0EDBCFB6F203D0FD0E6A
:10340000DBCFB7F253D03BD820E0030A1AE0010A21
:1034100014E0070A0EE0010A07E0030A1AE1F09837
:103420000201A36BA46B17D0F09A0201A56BA66BE7
:1034300012D00201A76BA86B0ED00201A96BAA6B78
:103440000AD00201AB6BAC6B06D00201AD6BAE6B68
:1034500002D0FE0EDB50F28C29D0120012001200B6
:103460001200FD0EDB50010BF36EF346F346F346FC
:103470001200E76E020EE7CFDBFFDB5012001AD816
:10348000F29CFE0EDB50060A1200F346EF0EF1141A
:10349000F310F16EFD0EDBCFB2F21200F70EF11455
:1034A000F310F16EFD0EDBCFB3F21200E552E7CF61
:0E34B000D9FF1200D9CFE6FFE1CFD9FF1200FD
:0234BE00000EFE
:1034C000E96EEA6E04006CEC1AF0EA2A080EEA5C77
:1034D000D8A462EF1AF01200EF6AE93E6CEF1AF01E
:1034E0001200FF0EE3CF09F009380F0B060FD8B218
:1034F000070F2A0FAD6E32EC22F009500F0B060FAA
:10350000D8B2070F2A0FAD6E32EC22F0000CFF0E7E
:10351000E3CF15F015B0968E15A0969E15B2988043
:1035200015A2989015B4988615A4989615B6988803
:1035300015A6989815B8968015A8969015BA9682F3
:1035400015AA969215BC968415AC969415BE9686CF
:1035500015AE96961200EACF04F0E9CF05F0FF0E03
:10356000E3CFEAFFFE0EE3CFE9FFFEA741D0EECFA7
:10357000A0F0EECFA1F0EECFA2F0EECFA3F0EECF11
:10358000A4F0EECFA5F0EECFA6F0EECFA7F0EECFF1
:10359000A8F0EECFA9F0EECFAAF0EECFABF0EECFD1
:1035A000ACF0EECFADF0EECFAEF0EECFAFF0EECFB1
:1035B000B0F0EECFB1F0EECFB2F0EECFB3F0EECF91
:1035C000B4F0EECFB5F0EECFB6F0EECFB7F0EECF71
:1035D000B8F0EECFB9F0EECFBAF0EECFBBF0EECF51
:1035E000BCF0EECFBDF0EECFBEF0EECFBFF040D0DE
:1035F000EECF80F0EECF81F0EECF82F0EECF83F011
:10360000EECF84F0EECF85F0EECF86F0EECF87F0F0
:10361000EECF88F0EECF89F0EECF8AF0EECF8BF0D0
:10362000EECF8CF0EECF8DF0EECF8EF0EECF8FF0B0
:10363000EECF90F0EECF91F0EECF92F0EECF93F090
:10364000EECF94F0EECF95F0EECF96F0EECF97F070
:10365000EECF98F0EECF99F0EECF9AF0EECF9BF050
:10366000EECF9CF0EECF9DF0EECF9EF0EECF9FF030
:1036700004C0EAFF05C0E9FF1200FEA11200EACF74
:1036800004F0E9CF05F0FF0EE3CFEAFFFE0EE3CF33
:10369000E9FFFEA941D0C0C0EEFFC1C0EEFFC2C02D
:1036A000EEFFC3C0EEFFC4C0EEFFC5C0EEFFC6C054
:1036B000EEFFC7C0EEFFC8C0EEFFC9C0EEFFCAC034
:1036C000EEFFCBC0EEFFCCC0EEFFCDC0EEFFCEC014
:1036D000EEFFCFC0EEFFD0C0EEFFD1C0EEFFD2C0F4
:1036E000EEFFD3C0EEFFD4C0EEFFD5C0EEFFD6C0D4
:1036F000EEFFD7C0EEFFD8C0EEFFD9C0EEFFDAC0B4
:10370000EEFFDBC0EEFFDCC0EEFFDDC0EEFFDEC093
:10371000EEFFDFC0EEFF40D0E0C0EEFFE1C0EEFF05
:10372000E2C0EEFFE3C0EEFFE4C0EEFFE5C0EEFF57
:10373000E6C0EEFFE7C0EEFFE8C0EEFFE9C0EEFF37
:10374000EAC0EEFFEBC0EEFFECC0EEFFEDC0EEFF17
:10375000EEC0EEFFEFC0EEFFF0C0EEFFF1C0EEFFF7
:10376000F2C0EEFFF3C0EEFFF4C0EEFFF5C0EEFFD7
:10377000F6C0EEFFF7C0EEFFF8C0EEFFF9C0EEFFB7
:10378000FAC0EEFFFBC0EEFFFCC0EEFFFDC0EEFF97
:10379000FEC0EEFFFFC0EEFF04C0EAFF05C0E9FF78
:1037A0001200F2B4120016500F0AD8B41200FF0E25
:1037B000E3CF0AF0FE0EE3CF0BF0FD0EE3CF0CF0EB
:1037C000FC0EE3CF0DF00A2A16A08D8E0B2A16A24E
:1037D0008F800C2A16A48F860D2A16A68F88FB0EC2
:1037E000E3CF0EF0FA0EE3CF0FF0F90EE3CF10F0B7
:1037F000F80EE3CF11F00E2A8D800F2A8D82102A49
:103800008D84112A8D8634EC1CF00A2E0AEF1CF0F0
:1038100016A08D9E0B2E0FEF1CF016A28F900C2E73
:1038200014EF1CF016A48F9600000D2E1AEF1CF05A
:1038300016A68F9800000E2E1FEF1CF08D90000032
:103840000F2E24EF1CF08D920000102E29EF1CF09B
:103850008D940000112E2EEF1CF08D9656EC1CF06E
:10386000133E05EF1CF01200D70E136E000000008F
:10387000000000004CEC1CF0132E36EF1CF0D70EAD
:10388000136E00000000000000004CEC1CF0132E32
:1038900041EF1CF00000120000004FEF1CF0000090
:1038A000000000000000000000001200030E146E73
:0A38B0000000142E58EF1CF0120067
:0638BA00E66AE66AE66A18
:1038C000E66A13EC27F0E552E552E552E552FFD7E0
:1038D0000201875101E1010CFF0E875D04E1400EFA
:1038E0000101F015120081AC010C81AE000CDEEC80
:1038F0000AF0020187512D6E2E6AF3502D5CF450B0
:103900002E5801E2000C010C800E0101F01501E0BF
:10391000000C010C7FD9FE0EDB50FF0804E0FD0E09
:10392000DB50FF0804E1FE0EDB68FD0EDB68FE0ED7
:10393000DBCF87F2FD0EDBCF88F271D16BD90101AD
:10394000D469E150FD0F5FD901E1D491D950FB0F4B
:103950005AD901E1D493D950F90F55D901E1D49541
:10396000D950F70F50D901E1D49759D153D9F70E57
:10397000DBCFE6FFF80EDBCFE6FFF90EDBCFE6FF8D
:10398000FA0EDBCFE6FFFB0EDBCFE6FFFC0EDBCF54
:10399000E6FFFD0EDBCFE6FFFE0EDBCFE6FF50D9E4
:1039A0003ED138D9E6520201876B020189694FEC9A
:1039B0000EF0978497829780928A92869284928260
:1039C0009280F70EE66E3DEC13F0E552998E998CDD
:1039D000998A9988978C978A97889786010EE66EC0
:1039E000E66AE66EE66AE66EE66AE66EE66A28D99A
:1039F000E8EC22F0150EE66E010EE66EEBEC1FF021
:103A0000E552E55284EC19F057EC0AF00CD991EC30
:103A10000EF061EC26F0E55202D10101DE511200F8
:103A2000DE0EE66E010EE66EF1EC0EF0E552E552AA
:103A30000201010EC56F13EF1EF0ECD8080EE1264F
:103A4000FE0EDB500EE10101F151E66EE66AFD511A
:103A5000E66EE66AB50E2B6E3D0ECCD8F56E070EFF
:103A6000BCD0FE0EDB046BE10101F05104E1A80EB5
:103A70002B6E3D0EB8D0010EF01502E0010E01D004
:103A8000000EDF6E020EF01502E0010E01D0000EF6
:103A9000E76E010EE7CFDBFF040EF01502E0010E2A
:103AA00001D0000EE76E020EE7CFDBFF080EF01527
:103AB00002E0010E01D0000EE76E030EE7CFDBFF40
:103AC000100EF01502E0010E01D0000EE76E040E9C
:103AD000E7CFDBFF200EF01502E0010E01D0000E53
:103AE000E76E050EE7CFDBFF400EF01502E0010E9A
:103AF00001D0000EE76E060EE7CFDBFF800EF0155B
:103B000002E0010E01D0000EE76E070EE7CFDBFFEB
:103B100093D8060E91D8050E8FD8040E8DD8030EBB
:103B20008BD8020E89D8010E87D8DFCFE6FFE66A70
:103B3000890E2B6E3D0E5ED8F56E130E4ED0FE0E26
:103B4000DB5002084DE1800E0101F01502E0010E8C
:103B500001D0000E2B6E2C6A2BBE2C682BC0E6FF0A
:103B60002CC0E6FF400EF01502E0010E01D0000E61
:103B70002D6E2E6A2DBE2E682DC0E6FF2EC0E6FFEC
:103B8000080EF01502E0010E01D0000E2F6E306A13
:103B90002FBE30682FC0E6FF30C0E6FF040EF015E0
:103BA00002E0010E01D0000E316E326A31BE326881
:103BB00031C0E6FF32C0E6FFF051E66EE66A430E22
:103BC000336E3D0E346E356A33C0E6FFE66E35C0A7
:103BD000E6FF61EC24F0F56E0D0EE15EF55007D0C6
:103BE000350E2B6E3D0E06D8E552E552E552D9CF83
:103BF000E1FF15D02C6E2D6A2BC0E6FFE66E2DC0BE
:103C0000E6FF61EF24F0E96EFF0EDA20EA6EEE5077
:103C1000ED101200D9CFE6FFE1CFD9FF1200E55237
:103C2000E7CFD9FF1200BE0EE66E010EE66E13EC72
:103C30000FF0E552E5521200DBCFE6FFE66A120014
:0C3C40007DDEF56E080EE15EF55012000E
:043C4C0025640A00E1
:103C50002E0A004572726F723A20696E76616C6945
:103C60006420616E616C6F6720706F7274206E7576
:103C70006D6265722025640D00496C6C6567616C2E
:103C800020494F20706F7274202564207265717511
:103C9000657374656400496C6C6567616C20494F9D
:103CA00020706F727420256420726571756573745D
:103CB00065640D00496C6C6567616C20706F72748F
:103CC00020646972656374696F6E001B5052494EBF
:103CD000544652414D454744202564202564202503
:103CE0006420256420256C6420256C64200A001B58
:103CF0005052494E54544558544744202564202579
:103D00006420256C6420256C64202564200220003A
:103D10001B434C45415247442025642025642025FF
:103D200064202564202564200A001B524553455415
:103D30004744200A00496E76616C6964207479708A
:103D4000650A00776966693A2025642C20776966E0
:103D5000696163746976653A2025642C206669651B
:103D60006C6463746C3A2025642C206175746F6EEA
:103D70006F6D6F75733A2025642C206469736162DE
:103D80006C65643A2025640A006F695F616E616C3E
:103D90006F6731333A2025642564256425642564E2
:103DA0002564256425640A004C6567616379206D8C
:103DB0006F64650A006D61737465725F7665727316
:103DC000696F6E3A202564206F695F616E616C6F68
:103DD0006731343A2025640A0054696D6572206E9B
:103DE000756D6265722028256429206F7574206FB7
:103DF000662072616E67650D00556E726567697346
:103E000074657220696E746572727570743A207090
:103E10006F7274202564206973206F7574206F663B
:103E20002072616E67650D00526567697374657213
:103E300020696E746572727570743A20706F727456
:103E4000202564206973206F7574206F662072616D
:103E50006E67650D004372797374616C20436F6DFA
:103E60007065746974696F6E2050726F6A656374EF
:103E70002E204175746F6E6F6D6F75732054696D70
:103E8000653A202564207365632E204F706572614A
:103E9000746F722054696D653A20256420736563E0
:103EA0002E0D0D0043616E6E6F7420626520727579
:103EB0006E20776974682057694669206465766961
:103EC00063652E20506C6561736520636F6E6E654F
:103ED0006374204372797374616C20616E64207224
:103EE0006573746172742074686520636F6E747298
:103EF0006F6C6C65722E0A005769466920436F6DBE
:103F00007065746974696F6E2050726F6A6563744E
:103F10002E0D0D004D617374657220636F64652012
:103F200076657273696F6E3A2025642E20506C6539
:103F30006173652075706461746520746865206DB7
:103F4000617374657220636F64652E0A004D61733E
:103F500074657220636F64652076657273696F6E35
:073F60003A2025640D0D005D
:013F67000059
:083F6800150EE66E010EE66E77
:103F70000DD8E552E5520201C869C969150EE66E11
:103F8000010EE66E28D8E552E55212001ED9020E47
:103F9000E12624D9010E2BC0DBFFFE0EDB50010B06
:103FA00005E0010EDBCFE6FFFC0E04D0010EDBCFF7
:103FB000E6FFEC0EE66E8AEC25F0E552E5529F989E
:103FC0009F9A949C948EAE50DF6EAE50DF6E9E9A98
:103FD000D9CFE1FFFFD0F9D8E65200D92B50DF6EE0
:103FE000FE0EDB50010B04E0DFCFE6FFFC0E03D03A
:103FF000DFCFE6FFEC0EE66E58EC25F0E552E55219
:10400000A59AA59898929884E552E4D0DED8E65215
:104010000201775102E1000E0FD07351732BEA6A4F
:10402000020FE96E070EEA22EFCFDFFF1F0E7317B4
:104030009D9A77079D8ADF50E552CCD002017751D7
:104040001200020178511200C0D8E65202017851E4
:1040500002E1000E0FD07451742BEA6A220FE96E50
:10406000070EEA22EFCFDFFF3F0E7417A39A7807FF
:10407000A38ADF50E552AED0A8D8400E0201815D80
:10408000FCE29D987F517F2BEA6A620FE96E070E72
:10409000EA22FE0EDBCFEFFF3F0E7F17812B9D88BC
:1040A00099D093D8100E0201825DFCE2A398805152
:1040B000802BEA6AA20FE96E070EEA22FE0EDBCF22
:1040C000EFFF0F0E8017822BA38884D0200E0201F1
:1040D000775D13E27551752BEA6A020FE96E070EE0
:1040E000EA22AECFEFFF1F0E7517772BABA203D0DE
:1040F000AB98AB88792BABB47B2B120066D8FD0E46
:10410000DBCF83F2FE0EDBCF84F264D00201835159
:10411000841101E1000C010C58D8E6526E50DF6E9C
:104120000201835184110BE0DFCFE6FF05D084C28A
:10413000FAFF02018351F96EFADFE5520FD0400E0B
:10414000785D0CE27651762BEA6A220FE96E070E53
:10415000EA22DFCFEFFF3F0E7617782B6BA204D059
:104160006B986B8802017A2B6BA402D002017C2B26
:10417000E55230D00201815102E19D9812007D513B
:104180007D2BEA6A620FE96E070EEA22EF50AD6EF0
:104190003F0E7D17810712000201825102E1A398B0
:1041A00012007E517E2BEA6AA20FE96E070EEA2208
:1041B000EF506D6E0F0E7E178207120006D8FE0EAE
:1041C000DBCFE6FF59DFE55205D0D9CFE6FFE1CFDF
:1041D000D9FF1200E552E7CFD9FF1200FF0EE76EBC
:0E41E000FD0EDBCF2BF0E7502B162C6A1200E1
:0241EE0013D9E3
:1041F000FD0EDBCFBCF2FE0EDBCFBDF20201BE6BCB
:10420000BF6B0ED1ABD82A0E2B6E3D0EF1D8E55206
:10421000E552E5521200FFD8A1D8FA0E1FD9C1D835
:10422000100E2B6E3D0EE4D8F56E0D0EE15EF550CE
:10423000F7D0F1D80A0EE126D950040FE96EDACF93
:10424000EAFF000EEE6E010EED6E080EDB6A090E3F
:10425000DB6A84D8E9D82BC0DEFFDD6EDECFE6FF57
:10426000DDCFE6FFA4D8D950040FE66E000EDA20A9
:10427000E66EE1D8070EF3CFDBFF040EDBCFE9FFDC
:10428000050EDBCFEAFFEF6A060EDB6A070EDB04E2
:10429000F36E060EDBCFF4FFF350F45C16E2060E6D
:1042A000DB50EA6A000FE96E010EEA22EF502B6E36
:1042B0002C6AD950080FE96EDACFEAFF2B50EE26B0
:1042C0002C50ED22060EDB2AE1D7080EDBCFE6FFED
:1042D000090E97D82F6E306A316A326AD950F90FB9
:1042E0004CD8F90F6DD8AED8EF0E336E3C0E75D8A2
:1042F000110EE15EF55098D8020E2BC0DBFF030EC5
:104300002CC0DBFF020EDBCFE6FF030EDBCFE6FFA8
:104310004ED8C8C2E6FFC9C2E6FF8DD8D9CFE1FFAB
:104320007FD079D81BD8FB0EDBCFE6FFFC0E69D817
:10433000E552E724E552E7242F6E306A316A326A8B
:10434000D950F70F1AD8F70F3BD82BD8CB0E336EB6
:104350003C0E43D8130EE15EF55062D0BCC2E6FFBE
:10436000BDC2E6FFBEC2E6FFBFC2E6FF06EC0DF02F
:10437000E552E552E552E5521200E96EFF0EDA20F1
:10438000EA6E2F50EE242B6E3050EE202C6E315002
:10439000EE202D6E3250EE202E6E59D8E66ED9509A
:1043A0001200FB0E5BD8FC0E59D822EF22F0F70E5C
:1043B000DBCF2BF0F80EDBCF2CF02D6A27EF22F0AD
:1043C000E96EFF0EDA20EA6EEECFE6FFEECFE6FFF3
:1043D000EECFE6FFEFCFE6FF1200346E356A33C052
:1043E000E6FFE66E35C0E6FF61EC24F0F56E1200E4
:1043F0002C6E2D6A2BC0E6FFE66E2DC0E6FF61EF46
:1044000024F0DBCFE6FFFD0EDBCFE6FFFE0EDB5038
:10441000E552E7241200D9CFE6FFE1CFD9FF120021
:10442000E552E7CFD9FF1200D950F70F2B6EFF0EE0
:10443000DA202C6E12005CEC04F0F56E070EE15EE3
:10444000F5501200FD0E0AD8FE0E2EEF22F02BC002
:10445000E6FF2CC0E6FF2DC0E6FF1200DBCFE6FF33
:04446000E66A1200F6
:0C4464009EA8FED71200CDD8FE0EDBCFC4
:10447000E6FF71EC1AF0E552B9D0C5D80101E15060
:10448000FD0FB46FFF0EDA20B56F010EEA6AB42596
:10449000E96EB551EA22B1D8B4C1E9FFB5C1EAFF6E
:1044A000ACD8A4D0B0D8FD0EDBCF2BF0FE0EDBCF06
:1044B0002CF02D6A2BC0E6FF2CC0E6FF2DC0E6FFD6
:1044C000640EE66E010EE66ECAEC23F0F56E050E84
:1044D000E15EF550640EE66E010EE66EE3EC23F04D
:1044E000E552E552F3CFB8F1F4CFB9F10101F4345C
:1044F00008E2B8515008000EB95503E2500EB86FEB
:10450000B96BBA6BBB6BBB51B919E8AE02D0B93508
:1045100004D0B851BA5DB951BB590EE2640EBA2548
:10452000E96E010EBB21EA6EEF50AD6E9BDF01011B
:10453000BA2B000EBB23E7D7E552E7CFD9FF120015
:1045400062D80101B66B1A0EB65D0DE2FD0EDBCF2F
:10455000E9FFDB2AFE0EDBCFEAFF01E3DB2A4DD8C1
:104560000101B62BF0D742D00101DE0EB46F010E6F
:10457000B56F0101DE510201B86FB96BBA51B819BC
:1045800002E1BB51B91916E00101FEB50ED0BAC265
:10459000E6FF71EC1AF0E552B8C2E6FF71EC1AF0D2
:1045A000E5520D0EAD6E5EDF0101FE95B8C2BAF2A6
:1045B000B9C2BBF20201BA2B000EBB23BB3507E226
:1045C000BA51FF08000EBB5502E2BA6BBB6B12007A
:1045D000150EE66E3C0EE66E8AEC25F0E552E552CD
:1045E000320EE66EC8EC26F0E55212000D0EAD6EEE
:1045F00039DFE552E7CFD9FF1200EF50E66E71ECDC
:104600001AF0E5521200D9CFE6FFE1CFD9FF120030
:10461000D9CFE6FFE1CFD9FF060EE126020EDB6A15
:10462000030EDB6A010EF36E040EF3CFDBFF050E03
:10463000DB6A010EF36E020EF3CFDBFF030EDB6AC3
:10464000020EDBCF2BF0030EDBCF2CF02D6A2CBE3D
:104650002D682D500F0AE8AE02D0D89006D0400E3B
:104660002B5C420E2C580F0E2D583EE2010EE66ECA
:104670006BEC13F0E552F3CFDEFFF4CFDDFF500E0D
:10468000E66E3C0EE66EE66AE66AE66AE66A020EE8
:10469000DBCFE6FFDFCFE6FF19EC21F0F56E080E69
:1046A000E15EF550020EDBCFE6FF030EDBCFE6FF47
:1046B0004C0EE66E3C0EE66EEDEC25F0E552E55252
:1046C000E552E552900EE66E010EE66EE66AE66A87
:1046D00006EC0DF0E552E552E552E552020EDB2AFA
:1046E000030EAEE3DB2AACD7D9CFE1FFE552E7CF2B
:0446F000D9FF1200DC
:0C46F4001E0EF66E080EF76E000EF86E3B
:1047000002010900F5508F6F0900F550906F03E129
:104710008F6701D03DD00900F5508A6F0900F55030
:104720008B6F0900F5508C6F09000900F550E96E98
:104730000900F550EA6E090009000900F5508D6F77
:104740000900F5508E6F09000900F6CF91F2F7CFFE
:1047500092F2F8CF93F28AC2F6FF8BC2F7FF8CC2B7
:10476000F8FF02018D5302E18E5307E00900F55076
:10477000EE6E8D07F8E28E07F9D791C2F6FF92C26E
:10478000F7FF93C2F8FF02018F07000E905BBFD7BF
:044790001200120001
:0C479400FB0EE3CFF6FFFC0EE3CFF7FFB7
:1047A000FD0EE3CFF8FFFE0EE3CFE9FFFF0EE3CFF0
:1047B000EAFFE9CFF3FFEACFF4FF0900F5CFEFFFFF
:1047C000EE66FBD71200FE0EE3CFE9FFFF0EE3CF4C
:1047D000EAFFF36AF46AEE5203E0F34AF42AFBD7E5
:1047E0001200FF0EE3CFF8FFE552FF0EE3CFF7FF15
:1047F000E552FF0EE3CFF6FFE552E66AE66AE66AA7
:104800000900F55209E0FD0EE32A05E1FE0EE32A58
:1048100002E1FF0EE32AF4D7FD0EE3CF1CF0FE0EFB
:0C482000E3CF1DF0FF0EE3CF1EF01200EE
:04482C001DC029F092
:104830001D502202F4CF1CF0F3CF1BF01E502302B8
:10484000F4CF1EF0F3CF1DF02202F3501C26F450DB
:104850001D22E86A1E2229502302F3501C26F45020
:104860001D22E86A1E22000C1EC02AF01DC029F07D
:104870001D502202F4CF1CF0F3CF1BF01E50230278
:10488000F4CF1EF0F3CF1DF02202F3501C26F4509B
:104890001D22E86A1E2229502302F3501C26F450E0
:1048A0001D22E86A1E2223AE5AEF24F029501D5E15
:1048B0002A501E5A2AAE000C22501D5E23501E5A4A
:0248C000000CEA
:0E48C200D9CFE6FFDACFE6FFE1CFD9FFE2CF94
:1048D000DAFFE652E652E652E652D950FB0F2B6E53
:1048E000FF0EDA202C6E2BC0DEFFDD6EDECFE6FF82
:1048F000DDCFE6FFFB0EDBCFE6FFFC0EDBCFE6FFF6
:10490000FD0EDBCFE6FFC8C2E6FFC9C2E6FF5CECE6
:1049100004F0F56E070EE15C02E2E16AE552E16E39
:10492000F550020EF3CFDBFF030EF4CFDBFF020ED8
:10493000DBCF2BF0030EDBCF2CF02BC0F3FF2CC012
:10494000F4FFD9CFE1FFDACFE2FFE552E5CFDAFF9E
:06495000E7CFD9FF1200C1
:0A495600D9CFE6FFDACFE6FFE1CF8C
:10496000D9FFE2CFDAFFFB0EDBCF2BF0FC0EDBCF63
:104970002CF00001800E2C141AE1FB0EDBCFE9FFB6
:10498000FC0EDBCFEAFFEECFF3FFEDCFF4FFEE2A14
:10499000000EEF22F3CFE9FFF4CFEAFFFD0EDBCFED
:1049A000EFFFEF502C6AF36E2CC0F4FF10D0FB0E1B
:1049B000DB50FE0806E1FD0EDBCFE6FFD8EC26F06B
:1049C00005D0FD0EDBCFE6FFDEEC20F0E552E55230
:0A49D000E5CFDAFFE7CFD9FF1200B0
:0649DA001B502002F3CF88
:1049E00017F0F4CF18F02102F3501826000EF4202F
:1049F000196E1B502202F3501926000EF4201A6E75
:104A00001B502302F3501A261C502002F350182684
:104A1000F4501922000E1A221C502102F3501926BC
:104A2000F4501A221C502202F3501A261D50200264
:104A3000F3501926F4501A221D502102F3501A2661
:0A4A40001E502002F3501A26120047
:064A4A00D9CFE6FFDACF30
:104A5000E6FFE1CFD9FFE2CFDAFF3F0EC716C66A05
:104A6000FD0EDB50C612FB0EDB50C712FC0EDB50F6
:104A7000030A09E0010A04E0020A06E1C78C04D037
:104A8000C78CC68801D0C688FD0EDB50050A03E03E
:104A9000010A04E1928A9486C79E01D09496949A62
:104AA0009488C68AE552E5CFDAFFE7CFD9FF120036
:104AB000D9CFE6FFDACFE6FFE1CFD9FFE2CFDAFFC9
:104AC0006C6A6B6AFD0EDBB06C88DBA202D06C8C6A
:104AD0006B8CDBB46C8EDBA602D06B8801D06B8A4A
:104AE000DBA802D06C8401D06C94DBAC02D0A38A2A
:104AF00001D0A39ADBAE02D0A38801D0A398FC0E0C
:104B0000DB506F6E6C8A6B8EE552E5CFDAFFE7CF34
:044B1000D9FF1200B7
:0C4B1400D9CFE6FFDACFE6FFE1CFD9FFF2
:104B2000E2CFDAFFAC6AAB6AFD0EDBB0AC88DBA289
:104B300002D0AC8CAB8CDBB4AC8EDBA602D0AB88E5
:104B400001D0AB8ADBA802D0AC8401D0AC94DBAC42
:104B500002D09D8A01D09D9ADBAE02D09D8801D003
:104B60009D98FC0EDB50AF6EAC8AAB8EE552E5CF64
:084B7000DAFFE7CFD9FF1200C4
:084B7800D9CFE6FFDACFE6FF1A
:104B8000E1CFD9FFE2CFDAFFC26AC16AC06AFC0E88
:104B9000DB407F0B3C0BC26EFD0EDB500F0B2B6E10
:104BA000FC0EDB38F00B300B2B10C16EFD0EDB382A
:104BB0000F0B070B2B6EFD0EDB50800B2B10C06E06
:104BC000FC0EDBAE03D09E9C9D8CF28CC280E55225
:0A4BD000E5CFDAFFE7CFD9FF1200AE
:064BDA00D9CFE6FFE1CF98
:104BE000D9FF020EE126D950FD0F2B6EFF0EDA2001
:104BF0002BC0DEFFDD6EDECFE6FFDDCFE6FFFD0E74
:104C0000DBCF2BF0FE0EDBCF2CF02D6A2BC0E6FFA6
:104C10002CC0E6FF2DC0E6FFC8C2E6FFC9C2E6FF12
:104C20005CEC04F0F56E070EE15EF550D9CFE1FFC4
:084C3000E552E7CFD9FF1200A5
:084C38001A6A196A186A176A6A
:104C4000200EE76ED8901B361C361D361E361736E2
:104C5000183619361A362050175C21501858225031
:104C6000195823501A5809E32050175E2150185A3A
:104C70002250195A23501A5A1B2AE72EE4D7120041
:104C8000D9CFE6FFDACFE6FFE1CFD9FFE2CFDAFFF7
:104C9000FD0EDB507E0BCD6EFD0EDBAC02D0CD8E5B
:104CA00001D0CD9ECF6ACE6A9E90DBAE02D09D80B1
:104CB00001D09D90CD80E552E5CFDAFFE7CFD9FF57
:024CC0001200E0
:0E4CC200E66AE66A8AEC1CF0E552E552E66A04
:104CD000E66AE66AE66AE66AE66A010EE66EE66E8D
:104CE000E66EE66EE66EE66EE66EE66EE66EE66E24
:104CF000040EE66ED8EC11F0F56E110EE15EF55083
:024D000012009F
:0E4D0200D9CFE6FFDACFE6FFE1CFD9FFE2CF4F
:104D1000DAFFE652E652C350DF6E010EC4CFDBFF6E
:104D2000DECF2BF0DDCF2CF02BC0F3FF2CC0F4FF37
:104D3000E552E552E552E5CFDAFFE7CFD9FF1200A1
:104D40001A6A196A100EE76ED8901D361E3619368B
:104D50001A362250195C23501A5805E32250195E66
:0C4D600023501A5A1D2AE72EF0D712002B
:044D6C00F36AF46A88
:104D7000FF0EE124E96EFF0EE220EA6EED6607D039
:104D80002F0EEF6404D03A0EEF6001D0F32A120028
:104D9000FF0EE350366E480E01D04C0EE76EE72E44
:104DA000FED7E76AE72EFED7362EF7D700001200AF
:104DB000FF0EE350ACBA04D0AF6AAB8EAC8A949CC1
:0C4DC000ACA2FED7AD6EF36EF46A1200D8
:044DCC00FF0EE350A3
:104DD000E84E1200000000D000D000D0E82EFAD734
:024DE0001200BF
:0E4DE2000000000000000000000000000000C3
:084DF0000000000000000000BB
:084DF800303132333435363717
:094E0000383961626364656600E3
:074E090000878F979FA7AF00
:0A4E1000B7BFC7CFD7DFE7EFF7FF0A
:064E1A00D9CFE6FFE552CE
:064E2000E7CFD9FF1200EC
:0A4E2600D9CFE6FFE552E7CFD9FF30
:024E300012006E
:064E3200C2909D9C1200DD
:044E3800C282120020
:024E3C00FEFF77
:024E3E00000072
:104E40000000000000000000000000000000000062
:0D4E5000000000000000000000000000FF56
:034E5D0000000052
:014E60000051
:0F4E610000000000000000000000000000000042
:104E70000000000000000000000000000000000032
:104E80000000000000000000000000000000000022
:0D4E90000000000000000000000000000015
:034E9D0000000012
:054EA0000000001400F9
:044EA5000600000003
:020000040030CA
:0E000000FFFEFEFCFFFEFBFFFFFFFFFFFFFF0A
:00000001FF
